:02000002D0002C
:1040000000400D00888D0D00000006000D00050128
:084010000401FD08000000009E
:04401800C0820D0055
:10401C0009480A49884208B505D0094A824202D0AB
:10402C00121A03F08BFF0748074A0021121A03F0FB
:10403C00ADFF014808BD00BF20E40320E48C0D0057
:10404C009CE40320A0E40320F1E7032070B5074EA5
:10405C00074C03F057FEA41BA4080025A54200D171
:10406C0070BD56F8043B98470135F7E7AC8C0D0052
:10407C00D48C0D0000F0A6B908B500F0C1F8BDE86D
:10408C00084003F0F7BD01F0C7BD01F0C5BD01F05C
:10409C00CBBD000008B5034A00210C2001F0D0FC78
:1040AC00FEE700BF8D570D000078B0FA80F0400994
:1040BC0070470123037070477047006A0368DB6820
:1040CC001847000010B5034B0360044601F0ECF9EF
:1040DC00204610BD18860D0010B50446FFF7F2FF00
:1040EC002046102103F0F8FE204610BD0A4B10B5F7
:1040FC000446036002F0C0FA214602F0BEFC03F055
:10410C0071FD03F063FD2046044B40F8043B02F0C4
:10411C00A1FB204610BD00BF00860D00E8850D00F8
:10412C0010B50446FFF7E2FF2046242103F0D4FE2D
:10413C00204610BD0EB410B58DB00FAA016852F810
:10414C00044B039200232020CDE90403CDE9004267
:10415C001E2004AA01F07CFC0DB0BDE8104003B099
:10416C007047000070B5A2B02049214E802202A8F1
:10417C0003F08EFF0125002403F08AFEE9B201F062
:10418C00C3FE03F085FE01F0CAFEA8B904212B463C
:10419C0032460DEB010001F05FFD04220DEB020134
:1041AC0002A8013403F04FFF092C14D1114802A9C5
:1041BC00FFF7C0FF01200CE004280CD10E4A2B465F
:1041CC00802102A801F048FD0A4802A9FFF7B2FFBE
:1041DC00002022B070BD01357F2DCDD1002CE5D152
:1041EC00064902A803F01FFFEEE700BFD4820D00C2
:1041FC00ED820D0084E50320F3820D0011830D0088
:10420C0010B5584C88B001F0C3FA2368C01A564B4D
:10421C001B68984234D901F0BBFA544B20601B78D0
:10422C00D3B15348524C00F06CFC204600F06FFCAC
:10423C0018B9012001F040FDF7E74D4800F075FC7E
:10424C0003904B4800F05AFC494800F05DFC039A7F
:10425C0048494948FFF76EFF484B1B7883B14848E3
:10426C0005A900F022FB002867D0BDF91830009397
:10427C00BDF91420BDF9163042493F48FFF75AFFEB
:10428C00414B1A78002A56D0002240493A481A70FD
:10429C00FFF750FFFFF766FF3D493748FFF74AFF2E
:1042AC000121022003F0AFFD4FF47A7001F004FD00
:1042BC0038493148FFF73EFFFFF754FF364800F00E
:1042CC00FDFD18B135492C48FFF734FF34492A4815
:1042DC002A4CFFF72FFF0021022003F094FD3149F7
:1042EC002548FFF727FFFFF73DFF05A800F0ABFAC5
:1042FC00502105A800F0B4FA214805A900F00CFBE8
:10430C0008B329491C48FFF715FF012323701848EF
:10431C0000F0E6FBE0B925491748FFF70BFF134BFC
:10432C0001221A702378C3B1104B1B78ABB1204912
:10433C001148FFF7FFFE08B010BD03F053FC1D49F8
:10434C0003F0F7F89CE71C490B48FFF7F3FEDEE798
:10435C001A490948FFF7EEFEE4E719490648FFF74A
:10436C00E9FEFEE708E5032024E4032031E5032001
:10437C00E4E4032026830D0084E5032030E50320CC
:10438C00CCE403203D830D0020E4032050830D007A
:10439C006B830D008A830D00ACE40320A8830D0011
:1043AC00B8830D00D6830D00FA830D0037840D0001
:1043BC007C840D0046830D001A840D005B840D0077
:1043CC00A7840D007FB503F063FD01F06BFD0021A8
:1043DC00032003F007FD0121022003F003FD00215F
:1043EC00022003F010FD4FF47A7001F065FCFFF72A
:1043FC00B9FE01A800F027FA502101A800F030FA0C
:10440C004D484E4E01A900F087FA002871D04C4956
:10441C004C48FFF78FFE012333704B4800F060FBD4
:10442C0000286BD149494748FFF784FE484B0122CD
:10443C001A704848484C01F04DF8012345480DF1DD
:10444C000302002101F088F89DF803302A2B5DD07F
:10445C0042493C482A22FFF76DFE3E4801F044F8E1
:10446C003F4A3C480423002101F0C1F8012339489C
:10447C000DF10302002101F06FF89DF803302A2B97
:10448C0041D00022227037492E482A22FFF752FED3
:10449C00354D0823284601216B8100F0B1FF7C21AA
:1044AC00284600F091FD284600F008FD054600283E
:1044BC0033D02E492348FFF73DFE3378002B35D0FF
:1044CC00234B1B78002B31D02378002B2ED028497E
:1044DC001C48FFF72FFE4FF4FA7001F0EDFB254955
:1044EC001848FFF727FE24491648FFF723FE04B0AF
:1044FC0070BD22491348FFF71DFE8EE72049114875
:10450C00FFF718FE95E701232370C1E701231D492E
:10451C000C482370FFF70EFEBAE71B490948FFF75A
:10452C0009FE2378002BC8D02570C6E7174905482B
:10453C00FFF700FEFEE700BFCCE4032030E50320CC
:10454C00FA830D0084E50320E4E4032037840D0096
:10455C0031E50320F8E40320E0E40320C7840D00D8
:10456C002C860D00EB840D00ACE40320A8830D0019
:10457C0052850D007E850D009C850D001A840D0062
:10458C005B840D0016850D0036850D00BA850D0077
:10459C0070B5D0E900531426044606FB0356AE4210
:1045AC0004D0284603F02EF81435F8E7206801F003
:1045BC003BFB204670BD8842F8B504460D461646B6
:1045CC0016D9904215D2A2F11406751AA1F114074E
:1045DC002C44B7421CD02CB13146204603F08EF847
:1045EC00337C2374304603F00DF8143E143CF0E792
:1045FC000ED0B5420CD02CB12946204603F07EF8E3
:10460C002B7C2374284602F0FDFF14351434F0E79C
:10461C00F8BD2DE9F0410023C0E9003383604F68F9
:10462C009F4204460E4623DD4FF0140808FB07F0AA
:10463C0001F0F2FA0546D8B1D4E9001208FB0212D7
:10464C00FFF7B9FF206801F0EFFA2560A760D6E903
:10465C00007308FB0378B84508D03946284603F0A8
:10466C0067F83B7C2B7414371435F4E7736863607C
:10467C002046BDE8F081000070B5384B384A9A608E
:10468C0000248CB01C609C809C71032001F000FA0B
:10469C002146012001F014FA0121042001F060F8F8
:1046AC0003F0F6FB0323014601222E482E4D00F0A9
:1046BC008FF903F0EDFB4FF0FF3301461A462B4800
:1046CC0000F0D4F903F0E4FB234601464FF400520A
:1046DC00284600F0F5FE264B2B6003F0D9FB69222F
:1046EC000146244800F080FBCDE90044029403F01D
:1046FC0079FA214C0546694603A8FFF78AFF26463E
:10470C0003A906A8FFF785FF1C4B46F8043B06A936
:10471C0009A8FFF77EFF09AA1E21304602F007FB0D
:10472C0009A8FFF735FF06A8FFF732FF144B2360EB
:10473C00256203A8FFF72CFF124B236003F052FAFB
:10474C004FF4165103F03EFA01F096FF214602F0A9
:10475C0080FA6846FFF71CFF0CB070BDA0E4032084
:10476C000000FFFFCCE40320F8E40320E4E4032082
:10477C0018860D00ACE403200CE50320E8850D0041
:10478C00308A0D0000860D00704710B514210446C8
:10479C0003F0A2FB204610BDF8B50E46017C07467F
:1047AC0041F01801C0681D46144601F0ADFBF868D5
:1047BC00012D036888BF46F080069B6831469847F8
:1047CC002544AC42F86805D0036814F8011B9B68BB
:1047DC009847F6E701F0A3FBB0FA80F04009F8BD6A
:1047EC00F8B50F46017C044641F01801C0681E461E
:1047FC00154601F089FBE068012E036888BF47F07D
:10480C0080079B6839469847E06801F088FBC0B97F
:10481C00217CE068324641F0180101F072FB2E4415
:10482C00AE4201D10120F8BDE06803681B699847CE
:10483C000028F7D0E06803685B69984705F8010B1E
:10484C00EEE70020EFE70022027042708270C27027
:10485C00027142718271C27102724272827270472D
:10486C00002241F007010170027182704270C27126
:10487C004272704713B5036801AADC680123A04794
:10488C009DF8040002B010BD38B505460A240F216E
:10489C002846FFF7EFFF33284FF0010004D001F05A
:1048AC000BFA013CF3D1204638BDF7B50C46272155
:1048BC000546FFF7DFFF00F00800002814BF0126B3
:1048CC0000261BD02B686A46DF6828210623284661
:1048DC00B8479DF801209DF8003043EA022323805D
:1048EC009DF803209DF8023043EA022363809DF873
:1048FC0005209DF8043043EA0223A380304603B020
:10490C00F0BD13B503688DF804201C6901AA0123BE
:10491C00A04702B010BD000070B503689B68044648
:10492C000D469847064630B903F05CF9274902F06A
:10493C0000FE304670BD2A7820212046FFF7E1FFAB
:10494C006A7821212046FFF7DCFFAA782221204635
:10495C00FFF7D7FFEA7823212046FFF7D2FF2A7909
:10496C0024212046FFF7CDFF6A7925212046FFF749
:10497C00C8FFAB791BB126212046FFF77BFFAA7A33
:10498C002E212046FFF7BDFFAB785B06D1D5EA7927
:10499C0032212046FFF7B5FF2A7A33212046FFF754
:1049AC00B0FF6368002B0ADB6A7A22722046302142
:1049BC00FFF7A7FF31212046FFF75CFFB9E7002284
:1049CC00227230212046FFF79CFFB2E730860D00A3
:1049DC0010B5436000230372024B0360C160027484
:1049EC0010BD00BF4C860D00704708B580680028CC
:1049FC0003DB002180B203F006FABDE808400A2070
:104A0C0001F05AB908B58068002803DB012180B297
:104A1C0003F0F9F9BDE808400A2001F04DB910B5D2
:104A2C001C21044603F058FA204610BD13B50C4661
:104A3C000DF1060100F094F9BDF80630236002B0C8
:104A4C0010BD07B50DF1060100F079F9BDF80600AF
:104A5C004EF6AC63C01A18BF4FF0FF3003B05DF8D0
:104A6C0004FB08B500F018F908BD00002DE9F84367
:104A7C004FF05209C0E90012C0F80C908360054653
:104A8C001C200F4616469846FFF7FDFA044680B1E7
:104A9C000A4B80F81090C0E90037002E00F110038B
:104AAC00C0E902684761836103DB0121B0B203F006
:104ABC0099F92C612846BDE8F88300BF68860D0083
:104ACC0007B50DF10601006900F039F9BDF80600D3
:104ADC004EF6CC23C31A5842584103B05DF804FB80
:104AEC0010B50446FFF7ECFF30B1206900F0D4F8A4
:104AFC00003818BF012010BD0120FCE7006900F050
:104B0C004FB8006900F051B8006900F053B807B510
:104B1C000DF10701006900F0A2F89DF807000038BC
:104B2C0018BF012003B05DF804FB07B50DF10601B9
:104B3C00006900F015F9BDF8060003B05DF804FB40
:104B4C00F7B5044615464068BDF8207049081E4666
:104B5C006DBA01F0D9F96068ADF80450036802220F
:104B6C00DB6801A998470025AF42606805DD036842
:104B7C00715D9B6898470135F6E7012101F0CBF98F
:104B8C00002003B0F0BD1FB58DF80F30012309785C
:104B9C0000930DF10F03FFF7D3FF05B05DF804FB95
:104BAC00816901238622FFF7EEBF816940238722AA
:104BBC00FFF7E9BF816900238722FFF7E4BF2DE9E6
:104BCC00F34104461D464F08052692FA92F8606898
:104BDC00394601F099F96068ADF80480036801A9C1
:104BEC00DB68022298476068002101F094F918B143
:104BFC00013E16F0FF06EAD19DF820206068394688
:104C0C0001F07FF9013D606803681B69984730B17A
:104C1C00606803685B69984705F8010FF3E702B019
:104C2C00BDE8F08113B5012409780094FFF7C7FFA4
:104C3C00003818BF0120404202B010BD13B530221D
:104C4C000C460DF107038169FFF7ECFF9DF8073067
:104C5C00C3F3001383F00103237002B010BD37B50A
:104C6C0005460C460DF10701FFF7E8FFA9690DF1A8
:104C7C00060331222846FFF7D5FF50B99DF80630C0
:104C8C009DF8072003F001039A4206BF012323700D
:104C9C00207003B030BD000073B500231C4E8DF89E
:104CAC00073004462D25AAB216F8013BA16920460F
:104CBC000135FFF768FF882DF5D12046FFF775FF0A
:104CCC0098259DF8073063B90DF107012046013D89
:104CDC00FFF7C5FF15F0FF0517D0012000F0ECFF22
:104CEC00EFE72046FFF75CFF2046FFF763FFA16963
:104CFC00092308222046FFF746FFA16900230B2257
:104D0C002046FFF740FF02B070BD6FF00600FAE7D7
:104D1C0084860D001FB51C460023ADF80C30022311
:104D2C000978009303ABFFF74AFF30B99DF80C20CC
:104D3C009DF80D3003EB0223238004B010BD13B596
:104D4C0000230C46ADF8063081690DF1060340F2E4
:104D5C000F12FFF7DFFFBDF80630238002B010BD45
:104D6C0013B596220C460DF106038169FFF7D2FFAD
:104D7C00BDF80630238002B010BD704710B520215D
:104D8C00044603F0A9F8204610BD0EB410B58DB042
:104D9C000FAA016852F8044B039200232020CDE99E
:104DAC000403CDE90042012004AA00F051FE0DB02D
:104DBC00BDE8104003B070470EB410B58DB00FAA0B
:104DCC00016852F8044B039200232020CDE9040320
:104DDC00CDE90042322004AA00F03AFE0DB0BDE845
:104DEC00104003B07047000010B50272FF224281E0
:104DFC000022C0E9032242610276C261024A034CDE
:104E0C001060C0E9004110BD38E503208C880D000E
:104E1C002DE9F8439DF820800446894616461F4626
:104E2C00B8F1000F02D0406801F07CF8217A60687C
:104E3C0001F06AF86068036849469B6898476068A7
:104E4C00002101F068F8054600BB0123217A606857
:104E5C003A4601F044F88742034609D13744BE4232
:104E6C001CD0606803685B69984706F8010BF6E78D
:104E7C000B490C484A46FFF79FFFB8F1000F02D0D0
:104E8C00606801F058F82846BDE8F88303460649E7
:104E9C0004484A46FFF790FF0025EEE70125ECE7B2
:104EAC00DF860D0034E5032004870D0007B5009361
:104EBC000123FFF7ADFF03B05DF804FB73B5438925
:104ECC00FF2B044610D0194E194D00F061FCB0F5C3
:104EDC007A7F09D2608902F0AFFF012804D03146F5
:104EEC002846FFF727F9F0E701230DF107022821E7
:104EFC002046FFF7DBFF30B90D480E49FFF71AF9D2
:104F0C00002002B070BD9DF80730182BF4D101239E
:104F1C000DF1070229212046FFF7C8FF0028EBD02E
:104F2C009DF80730052BE7D1EBE700BF28870D0074
:104F3C0034E503203D870D002DE9F0419DF81880E4
:104F4C0004460F4615461E46B8F1000F02D04068C5
:104F5C0000F0E8FF217A606800F0D6FF6068036813
:104F6C0039469B6898472E44B542606805D0036863
:104F7C0015F8011B9B689847F6E7012100F0CBFF61
:104F8C00034670B1084909483A46FFF715FF00255A
:104F9C00B8F1000F02D0606800F0CDFF2846BDE8E4
:104FAC00F0810125F4E700BF4A870D0034E50320AA
:104FBC001FB58DF80F2000930DF10F020123FFF7A1
:104FCC00BBFF05B05DF804FBF8B50A460C46054678
:104FDC001A491B48FFF7AEF8002CB8BFEC687CB937
:104FEC00012322461B212846FFF7E2FF1549024602
:104FFC0006461348FFF7C9FEEC606C613046F8BDFD
:10500C00032C19DDA7101F2FA8BF1F27BA0062F0B1
:10501C007C020123D2B21B212846FFF7C9FF3A4676
:10502C000346094906460648FFF7AFFE4FF4FA63FC
:10503C005F43EC606F61E1E70127E7E76F870D00E5
:10504C0034E5032079870D0095870D000B46074941
:10505C000246086848B1002B08BFB2F5006F04D1B6
:10506C00C36813B10021FFF7AFBF704738E50320C9
:10507C002DE9FF419DF82880054616461F46B8F1DC
:10508C00000F04D04068019100F04CFF0199019190
:10509C0000230DF10F022846FFF708FF044660B10C
:1050AC009DF80F3003EA06023A43934205D001996A
:1050BC0000232846FFF77CFF0446B8F1000F02D00E
:1050CC00686800F038FF204604B0BDE8F08113B5E5
:1050DC0014460DF10702FFF7E9FE28B19DF80730E1
:1050EC001C420CBF0120002002B010BD13B51446A9
:1050FC000DF10702FFF7DAFE28B19DF807301C42CC
:10510C0014BF0120002002B010BD07B5D24300939C
:10511C00D2B20023FFF7ACFF03B05DF804FB000034
:10512C0037B501230DF107020F210446FFF7BEFE30
:10513C00054638B91E491F48AD22FFF73DFE2846EB
:10514C0003B030BD9DF8073013F0200F4FF0010372
:10515C000BD02022E3610F212046FFF7D6FF164A21
:10516C0016491448FEF7E6FFE9E708221721204606
:10517C00FFF7BCFF18B10223114AE361F0E79DF879
:10518C0007301A0709D50323E361082201230F21F5
:10519C002046FFF7BAFF0B4AE2E75B07CFD50422A4
:1051AC00E26101230F212046FFF7AFFF064AD7E744
:1051BC00E8870D0034E50320B9870D0007880D0042
:1051CC00C2870D00D2870D00E2870D0007B5009352
:1051DC001346FF22FFF74CFF03B05DF804FB2DE9EB
:1051EC00F3479DF828A005460C4691461F46BAF198
:1051FC00000F02D0406800F095FE07B3202F3E460A
:10520C0028BF20267F2C26D83319802B01D9C4F136
:10521C008006012304223F212846FFF776FF002356
:10522C0064F07F0100934A463346C9B22846FFF723
:10523C00EFFD804628B13444BF1BB144DDE74FF08D
:10524C000108BAF1000F02D0686800F074FE404605
:10525C0002B0BDE8F087012304223F212846FFF766
:10526C00B5FFDCE72DE9F3479DF828A005460C4671
:10527C0091461F46BAF1000F02D0406800F052FE72
:10528C0007B31F2F3E4628BF1F267F2C26D8331965
:10529C00802B01D9C4F18006012304223F2128462A
:1052AC00FFF733FF002364F07F0100934A46334637
:1052BC00C9B22846FFF740FE804628B13444BF1BD4
:1052CC00B144DDE74FF00108BAF1000F02D0686875
:1052DC0000F031FE404602B0BDE8F0870123042205
:1052EC003F212846FFF772FFDCE7000030B585B0A0
:1052FC000D68D1E9043203954D6802958D680195CE
:10530C00C96800910133044902F26C72044602F040
:10531C001BFA204605B030BD18880D0003110A2277
:10532C0000F00F0002FB0300704738B5044600780C
:10533C001546FFF7F3FF08606078FFF7EFFF486052
:10534C00A078FFF7EBFF8860E078FFF7E7FFC86015
:10535C002079FFF7E3FF013808612DB9651D287826
:10536C00FFF7DCFF886138BD6079FFF7D7FF643049
:10537C00A51D4861F3E7000070B5012388B00D4608
:10538C001A4610210446FFF7A2FEF0B108230126AD
:10539C00204600960DEB03020021FFF739FD044671
:1053AC0098B1324629460DF10900FFF7BEFF04A85B
:1053BC00FFF79CFF0848049A0849FEF7BBFE04A8B7
:1053CC0002F020F9204608B070BD242200212846A6
:1053DC0002F0DCFD0024F5E734E5032036880D00EF
:1053EC0030B58BB00D4601A9FFF7C6FF044620B1BE
:1053FC0001A800F059FCC5E9000120460BB030BDF6
:10540C0010B5044688B011B1406800F04BFD204641
:10541C00FFF754FD70B32046FFF782FE01231A46B6
:10542C0010212046FFF753FED8B102F0CDFAC0B9D7
:10543C0002A92046FFF7D4FFDDE9020102F0CBF907
:10544C000F4B10491B68009304A8DDE9022302F0FE
:10545C0079FA0D48049A0D49FEF76CFE04A802F087
:10546C00D1F80B4A002300214FF4006000F020FB20
:10547C0008B010BD07490448FFF79EFCF1E700BFD8
:10548C0030E40320D8E5032034E5032044880D00E4
:10549C0059500D0061880D00014B024A1A6070478B
:1054AC0034E5032079880D00704710B510210446AF
:1054BC0002F012FD204610BD0368C9B29B68184764
:1054CC0030B5034DC0E90223C0E9005130BD00BF27
:1054DC00D0880D00406800F0E5BC10B504460068AB
:1054EC0000F029FD204610BD2DE9F0418AB004469C
:1054FC004068019000F016FD1E22002102A8A7684A
:10550C0002F044FD0026EFB123681E2FB84628BFD9
:10551C004FF01E08DD6802AA434631462046A847D4
:10552C00054658B90A480B493246FEF703FE01A856
:10553C00FFF7D3FF28460AB0BDE8F081A7EB0807B8
:10554C004644E0E701A8FFF7C8FF0125F2E700BFDA
:10555C0084E503209C880D002DE9F7430446406840
:10556C0001900D4616461F4600F0DCFCA7B1E16821
:10557C00606841F0500100F0CBFC290A6068FFF72D
:10558C009BFF29466068FFF797FF6068002100F0D9
:10559C00C2FC48B1002400E0012401A8FFF79DFFE4
:1055AC00204603B0BDE8F083202F217B6068B8460D
:1055BC0028BF4FF020080123424641F0500100F073
:1055CC008EFC02F065FC03681B6998474045E1DBE3
:1055DC0006EB080902F05CFC03685B69984706F867
:1055EC00010B4E45F6D14544A7EB0807BEE72DE964
:1055FC00F74F0446406801900E4690461D4600F059
:10560C0091FC4FF00109B9F1000F2AD04DB3E168BC
:10561C00606841F0500100F07BFC310A6068FFF7D4
:10562C004BFF60683146FFF747FFA5F11E0A47465E
:10563C00A6EB080B606817F8011B0368013D9B681B
:10564C00984755450BEB0706B84601D0002DF1D114
:10565C006068012100F05FFC0028D7D04FF00009F2
:10566C00D1E701A8FFF739FF484603B0BDE8F08F3A
:10567C002DE9F0438BB00E461546804640680190EC
:10568C001C4600F04FFCAE4229D2264425448CB176
:10569C001E2C2746D8F8003028BF1E27F61BD3F83F
:1056AC00089002AA3B4631464046ED1BC84748B914
:1056BC00002400E0012401A8FFF70FFF20460BB0E7
:1056CC00BDE8F083D8F8003002AAD3F80C90294634
:1056DC003B464046C8470028EAD0E41BD7E7E9D947
:1056EC00002CE7D0D8F800301E2C274628BF1E27E8
:1056FC00D3F8089002AA3B4631464046C8470028DA
:10570C00D6D0D8F8003002AAD3F80C9029463B46E4
:10571C004046C8470028CBD03E443D44E41BDFE75D
:10572C0008B5024B1B685B6C019308BD4802030073
:10573C0008B5024B1B689B6C019308BD4802030023
:10574C0008B5024B1B68DB6C019308BD48020300D3
:10575C0008B5024B1B685B6D019308BD4802030042
:10576C0008B5024B1B685B6E019308BD3402030045
:10577C0008B5024B1B685B68019308BD1802030057
:10578C0008B5024B1B68DB68019308BD18020300C7
:10579C0008B5024B1B685B69019308BD1802030036
:1057AC0008B5024B1B689B6D019308BD18020300E2
:1057BC0008B5024B1B689B6E019308BD18020300D1
:1057CC0008B5024B1B689B68019308BD2C020300B3
:1057DC0008B5024B1B68DB68019308BD2C02030063
:1057EC0008B5024B1B681B69019308BD2C02030012
:1057FC0008B5024B1B685B69019308BD2C020300C2
:10580C0008B5024B1B68DB68019308BD2802030036
:10581C0008B5024B1B689B69019308BD2802030065
:10582C0008B5024B1B68DB69019308BD2802030015
:10583C0008B5024B1B681B6A019308BD28020300C4
:10584C0008B5024B1B685B6A019308BD2802030074
:10585C0008B5024B1B689B6A019308BD2802030024
:10586C0008B5024B1B68DB6A019308BD28020300D4
:10587C0008B5024B1B681B6B019308BD2802030083
:10588C0008B5024B1B685B6B019308BD2802030033
:10589C0008B5024B1B681B6C019308BD2802030062
:1058AC0008B5024B1B689B6C019308BD28020300D2
:1058BC0008B5024B1B68DB6C019308BD2802030082
:1058CC0008B5024B1B681B6D019308BD2802030031
:1058DC0008B5024B1B685B69019308BD64020300A9
:1058EC0008B5024B1B689B68019308BD6802030056
:1058FC0008B5024B1B68DB68019308BD6802030006
:10590C0008B5024B1B68DB69019308BD300203002C
:10591C0008B5024B1B681B6A019308BD30020300DB
:10592C0008B5024B1B681B68019308BD3C020300C1
:10593C0008B5024B1B689B68019308BD3C02030031
:10594C0008B5024B1B68DB68019308BD3C020300E1
:10595C0008B5024B1B681B69019308BD3C02030090
:10596C0008B5024B1B685B69019308BD3C02030040
:10597C0008B5024B1B689B69019308BD3C020300F0
:10598C0008B5024B1B68DB69019308BD3C020300A0
:10599C0008B5024B1B681B6A019308BD3C0203004F
:1059AC0008B5024B1B689B6A019308BD3C020300BF
:1059BC0008B5024B1B68DB6A019308BD3C0203006F
:1059CC0008B5024B1B681B68019308BD4C02030011
:1059DC0008B5024B1B685B68019308BD4C020300C1
:1059EC0008B5024B1B689B68019308BD4C02030071
:1059FC0008B5024B1B681B69019308BD4C020300E0
:105A0C0008B5024B1B685B69019308BD4C0203008F
:105A1C0008B5024B1B689B69019308BD4C0203003F
:105A2C0008B5024B1B68DB69019308BD4C020300EF
:105A3C0008B5024B1B681B6A019308BD4C0203009E
:105A4C0008B5024B1B685B6B019308BD6002030039
:105A5C0008B5024B1B685B6D019308BD6002030027
:105A6C0008B5024B1B68DB6E019308BD6002030096
:105A7C0008B5024B1B681B6F019308BD6002030045
:105A8C0008B5024B1B681B68019308BD200203007C
:105A9C0008B5024B1B685B68019308BD200203002C
:105AAC0008B5024B1B685B69019308BD200203001B
:105ABC0008B5024B1B681B6A019308BD200203004A
:105ACC0008B5024B1B68DB6A019308BD200203007A
:105ADC0008B5024B1B689B6D019308BD20020300A7
:105AEC0008B5024B1B68DB6D019308BD2002030057
:105AFC0008B5034B1B68D3F88830019308BD000030
:105B0C002002030008B5034B1B68D3F894300193B3
:105B1C0008BD00002002030008B5024B1B689B68FF
:105B2C00019308BD4402030008B5024B1B685B6976
:105B3C00019308BD4402030008B5024B1B681B6BA4
:105B4C00019308BD4402030008B5024B1B68DB6BD4
:105B5C00019308BD4402030008B5024B1B685B6847
:105B6C00019308BD4002030008B5024B1B689B68FB
:105B7C00019308BD4002030008B5024B1B68DB68AB
:105B8C00019308BD4002030008B5024B1B681B695A
:105B9C00019308BD4002030008B5024B1B685B690A
:105BAC00019308BD4002030008B5024B1B689B69BA
:105BBC00019308BD4002030008B5024B1B68DB696A
:105BCC00019308BD4002030008B5024B1B681B6A19
:105BDC00019308BD4002030008B5024B1B681B6B08
:105BEC00019308BD4002030008B5024B1B685B6BB8
:105BFC00019308BD4002030008B5024B1B681B6CE7
:105C0C00019308BD4002030008B5024B1B685B6C96
:105C1C00019308BD4002030008B5024B1B681B68CA
:105C2C00019308BD1C02030008B5024B1B685B689E
:105C3C00019308BD1C02030008B5024B1B689B684E
:105C4C00019308BD1C02030008B5024B1B681B69BD
:105C5C00019308BD1C02030008B5024B1B68DB69ED
:105C6C00019308BD1C02030008B5024B1B685B6A5C
:105C7C00019308BD1C02030008B5024B1B685B6C4A
:105C8C00019308BD1C02030008B5024B1B689B6CFA
:105C9C00019308BD1C02030008B5024B1B68DB6CAA
:105CAC00019308BD1C02030008B5024B1B685B6D19
:105CBC00019308BD1C0203000021FFF7F1BE10B5D3
:105CCC00036804469B689847A368013BA3602BB903
:105CDC0023682046DB68BDE81040184710BD0B68F0
:105CEC00036013B15A6801325A60704710B504460C
:105CFC00006828B14368013B43600BB9FFF7DFFF35
:105D0C00204610BD024800230360FFF709BD00BF09
:105D1C003CE50320002240681146FFF735BF002206
:105D2C0040681146FFF750BF002240681146FFF74C
:105D3C005BBF40680022FFF74FBF4068002281F034
:105D4C000101FFF739BF002340681A461946FFF7D7
:105D5C002BBF002340681A461946FFF71DBF0022CF
:105D6C0040681146FFF700BF406800220221FFF790
:105D7C0003BF002340681A46FFF7EEBE084B10B570
:105D8C00282422461846002102F000F9054B048015
:105D9C004FF0FF32426004225A60034A1A6010BD71
:105DAC0048E5032040E50320EC880D000022406804
:105DBC001146FFF709BF002240681146FFF714BFD8
:105DCC0040680022FFF708BF4068002281F0010103
:105DDC00FFF7F2BE002340681A461946FFF7E4BEEF
:105DEC00002340681A461946FFF7D6BE00224068C9
:105DFC001146FFF7C9BE002240681146FFF7B4BE3A
:105E0C00406800220221FFF7B7BE002340681A4603
:105E1C00FFF7A2BE024B03225A60024A1A60704777
:105E2C0070E5032028890D007047F8B50646154625
:105E3C000C468F18BC4206D0336814F8011B9B68C3
:105E4C0030469847F6E72846F8BD007C0022FFF75D
:105E5C00EFBC007C0021FFF7F3BC007C0021FFF7B6
:105E6C00F7BC007C0021FFF7FBBC007C0021FFF796
:105E7C00FFBC10B51421044602F02EF8204610BDCC
:105E8C0010B54FF47A73044608460021C4E9011397
:105E9C00034B236020741146FFF7FAFC204610BD1B
:105EAC0064890D000023007C1A461946FFF7A8BC34
:105EBC007FB500221423CDE90122ADF804300B7814
:105ECC008DF808304B680393CB680493007C0B7AF5
:105EDC00059301A9FFF7F4FC07B05DF804FB1FB5AF
:105EEC00003B8DF800104FF06401039118BF0123A3
:105EFC00694601928DF80830FFF7DAFF05B05DF8BE
:105F0C0004FB0123FFF7EBBF007C0022FFF780BCF2
:105F1C00C9B2FFF7F9BF007C0022FFF781BC012159
:105F2C00FFF7F9BF08B50021007CFFF7B9FCB0FA08
:105F3C0080F0400908BD08B50021007CFFF7B8FCD3
:105F4C00B0FA80F0400908BD704710B5182104461E
:105F5C0001F0C2FF204610BDF0B5037D062B8DB0BD
:105F6C000E4600F104074FF0000412D000F10805B2
:105F7C0015F8011D0A22304601F0E5FAAF4204443F
:105F8C0019D0002CF4D02E21304601F0C3FA044471
:105F9C00EEE72F236A4639460A208DF80040FFF7BA
:105FAC0097FC684602F047F833680246DB6869469E
:105FBC0030469847044620460DB0F0BD10B5054B51
:105FCC000446112240F8043B002101F0DFFF20467B
:105FDC0010BD00BF8C890D000346074A10B543F86D
:105FEC00042B01F1100251F8044B43F8044B91427D
:105FFC00F9D10A781A7010BD8C890D0010B59DF876
:10600C00084044EA032343EA024242EA01610423C2
:10601C004160037510BD13B5CB7800938B784A782B
:10602C000978FFF7EBFF02B010BD00F1100301225D
:10603C0013F8101C0129184608D153F8041C02EB64
:10604C004102013A03F11003F2D17047022904BF57
:10605C0053F8041C5218F4E70EB4F0B588B000AF36
:10606C0007F13405102155F8042B7A6004462B46B1
:10607C007818FD60FFF7F8FD0F287A681AD900F13F
:10608C00080323F007036E46ADEB030D411C2B46B2
:10609C006846FD60FFF7E8FD021E04DD23686946D3
:1060AC009B6820469847B5462037BD46BDE8F04072
:1060BC0003B070470028F7D0236802469B6807F1AD
:1060CC00100120469847EFE710B5036804469B681B
:1060DC009847A368013BA3602BB923682046DB6873
:1060EC00BDE81040184710BD07B503688DF80710C0
:1060FC009B6801220DF10701984703B05DF804FB82
:10610C0038B50B6803604D6843689D4204460CD05B
:10611C0015B16B6801336B60606828B14368013B53
:10612C0043600BB9FFF7D0FF6560204638BD0B46C6
:10613C001146002210B5C0E90022044683600BB959
:10614C00204610BDFFF7DCFFFAE78368EBB11A7845
:10615C00032A1AD8DFE802F00417021B0520704747
:10616C0002685B685268D05C2D2812D0A0F1300315
:10617C00092B0ED974280ED066280CD0A0F16E0312
:10618C005842584170470620704700207047042041
:10619C007047032070470220704710B50446FFF784
:1061AC00D4FF02280ED0C31EDBB2012B14D82268F8
:1061BC00A36850685B68BDE810400A2200211844AF
:1061CC0002F008B82268A36852685B68D05CA0F142
:1061DC0074035842584110BD0020FCE738B5002329
:1061EC00C0E9003304460E48C4E90203A9B10B7898
:1061FC00032B06D08BB9136858684B68C35C6E2BA5
:10620C0007D013684D6858688B6828445B1BA060E6
:10621C00E36011462046FFF773FF204638BD00BFF0
:10622C00F5890D0038B500250B46C0E90055C0E9CD
:10623C000255C0E90455044611464BB11A78012A9F
:10624C0006D103F11002DB6882604361FFF758FF4F
:10625C00204638BD10B54369044663B18068E060E0
:10626C00013B1030A0602061636113B1FFF7DDFECC
:10627C00A060012000E0184610BD10B57D21044639
:10628C00FFF732FF01232371204610BD08B50379B7
:10629C00012B02D0022B04D008BD2C21FFF724FFC8
:1062AC00FAE73A21FAE710B50446FFF7EFFF20466C
:1062BC007B21FFF719FF00232371204610BD00003E
:1062CC0013B504460191FFF7E1FF2368019ADB68DF
:1062DC0003492046984701232046237102B010BD84
:1062EC0076870D0013B504460191FFF7CFFF2368A5
:1062FC00019ADB6803492046984701232046237105
:10630C0002B010BDC3880D002DE9F0410D461746B3
:10631C002221DFF8A08004462F44FFF7E5FE294632
:10632C00BD422A4638D015F8016B222E03D05C2EC4
:10633C0001D01F2EF4D82368521A9B682046984728
:10634C005C212046FFF7D0FE0D2E0AD8072E1CD953
:10635C00A6F10803052B18D8DFE803F00D0F111771
:10636C001315222E01D05C2E0FD131462046FFF79B
:10637C00BBFE2946D4E76221F8E77421F6E76E21CB
:10638C00F4E76621F2E77221F0E723683246DB6816
:10639C00414620469847ECE78D4204D023686A1AA0
:1063AC009B682046984722212046FFF79DFEBDE8BA
:1063BC00F08100BF98890D0013B50446CDE900218A
:1063CC00FFF764FF2046DDE90021FFF79DFF022364
:1063DC002046237102B010BD13B50446CDE900214F
:1063EC00FFF754FF2046DDE90021FFF78DFF012365
:1063FC002046237102B010BD80680368DB68184723
:10640C007047084611B10B685B68184770477047B6
:10641C0070477047704738B504460D4600682E210A
:10642C0001F0EDFD2368C31A2B6023B1037803B18F
:10643C00013023682060184638BD10B50C21044685
:10644C0001F04AFD204610BD10B50421044601F0B0
:10645C0043FD204610BD10B50421044601F03CFD5F
:10646C00204610BD08B501F0D4FDB0FA80F040090B
:10647C0008BD704710B50C4601F0B4FB844210D037
:10648C0001F028FB844205D101F024FBBDE810404B
:10649C0001F01DBB2CB1236820465B68BDE81040A1
:1064AC00184710BD13B504460846019101F0C3FD11
:1064BC0001990246204602B0BDE81040FFF78CBFA0
:1064CC0013B504460846019101F0B5FD2368019906
:1064DC00DB680246204602B0BDE81040184707B5FD
:1064EC0003688DF80710DB6801220DF1070198474E
:1064FC0003B05DF804FB0EB403B503AB002153F8F5
:10650C00042B006A019301F03CF802B05DF804EB37
:10651C0003B070472DE9F74FD0E900954FF0140800
:10652C0008FB05F50093AB10184D17465D434C4620
:10653C00002D23DD6E1008FB06F004EB000A3A4632
:10654C00BAF804B0205801915F4528BF5A4601F0B3
:10655C008DFD0199012378B95F4503D1009A137021
:10656C003546E5E78CBF012000200028F8D0AE1B93
:10657C000AF11404013EF3E7C00FF6E7A4EB09049B
:10658C000248A410604303B0BDE8F08FCDCCCCCC56
:10659C007FB50369067E01910BB301B3002500F1B1
:1065AC000C04039503A901A8FFF735FF0146B0B110
:1065BC000DF10B03039A8DF80B502046FFF7AAFF41
:1065CC009DF80B305BB12468142303FB004000F1F1
:1065DC000804B0F90630002BA8BFDEB2E2E7304663
:1065EC0004B070BD10B5094C2378BFF35B8FDB078B
:1065FC0009D42046FDF758FD28B12046FDF759FD7A
:10660C00034801F095FC034810BD00BF7CE5032056
:10661C001B640D0028E4032010B5094C2378BFF34C
:10662C005B8FDB0709D42046FDF73EFD28B12046E1
:10663C00FDF73FFD034801F07BFC034810BD00BF94
:10664C0080E503207F640D002CE4032038B5002581
:10665C000446C0E90055C0E904558560856140F8E1
:10666C00245FFFF75DF8FFF7BDFFE061FFF7D4FF94
:10667C0025732062204638BD10B50A4C2378BFF331
:10668C005B8FDB070CD42046FDF70EFD40B10648AE
:10669C00FFF7DCFF2046FDF70CFD044801F048FC39
:1066AC00014810BD78E5032088E50320656B0D00DB
:1066BC00024A034903480023FFF7DAB9ED690D00DC
:1066CC0079690D00F9680D0000231A461946184621
:1066DC00FFF7CEB937B50D6951F8043B009304466A
:1066EC0001A8FFF7FCFA6A4629462046FFF71FFD72
:1066FC0001A8FFF7FBFA204603B030BD37B58D6813
:10670C0051F8043B0093044601A8FFF7E8FA6A46E7
:10671C0029462046FFF786FD01A8FFF7E7FA204639
:10672C0003B030BD37B5CD6851F8043B0093044637
:10673C0001A8FFF7D4FA6A4629462046FFF74EFD1A
:10674C0001A8FFF7D3FA204603B030BD70B58AB06C
:10675C000D46014604A8FFF7D1FF144E04A8FFF71D
:10676C0079FDE8B104A96846FFF7DCFF02983146D1
:10677C00FFF778FE044610B12C1E18BF012401A8A7
:10678C00FFF7B4FA002CE9D004A96846FFF7A2FF82
:10679C006846FFF702FD286001A8FFF7A7FADDE7BE
:1067AC0005A8FFF7A3FA0AB070BD00BF9E890D00C3
:1067BC0037B50C4620461249154601F02AFC48B95B
:1067CC0001F010FA4FF4165101F0FCF901F00AFA3D
:1067DC0003B030BD0B49204601F01BFC70B94FF4DF
:1067EC00165301A928460193FFF7B0FF01F072F987
:1067FC00019901F069F901F06DF9E9E70020E7E78B
:10680C00A3890D00AA890D0070B5D0E90053142698
:10681C00044606FB0356AE4205D005F10800FFF70F
:10682C00F3FF1435F7E72068FFF7FEF9204670BD3B
:10683C0070B5D0E90053044605EB0316AE4204D004
:10684C00284600F0DFFE1035F8E72068FFF7ECF97A
:10685C00204670BD10B504460C30FFF7D5FF20461E
:10686C00FFF7E6FF204610BD10B5044B044640F878
:10687C00043BFFF7EFFF204610BD00BFE8850D007D
:10688C0010B50446FFF7F0FF2046242101F024FB4D
:10689C00204610BD10B5034B03600446FFF7E4FF20
:1068AC00204610BD488A0D0010B50446FFF7F2FFD4
:1068BC002046242101F010FB204610BD0022C0E927
:1068CC00002210B582600C6804604C6844608C68CF
:1068DC000A604A6084608A6010BD10B50368044683
:1068EC001868FEF735FF204610BD00002DE9F04F6B
:1068FC0087B0804603931C4B5B68C3F3080389463F
:10690C0016466BB9FFF7B8FE044600F12403406A43
:10691C000593FEF715FF237B2BB105A8FFF7DDFFD1
:10692C0007B0BDE8F08F01232373D4E900535FFA5D
:10693C0089F905EB830AAA4512D055F8047B314638
:10694C00381DFFF725FE8145F5D33B68039A00926D
:10695C00D3F808B04A46334641463846D847EAE7AA
:10696C0000232373D9E700BF00ED00E02DE9F74FBA
:10697C009B461A4B5B68C3F3080380468946164650
:10698C006BB9FFF779FE044600F12403406A0193CA
:10699C00FEF7D6FE237B2BB101A8FFF79EFF03B0B9
:1069AC00BDE8F08F01232373D4E90053F6B205EB55
:1069BC00830A55450ED055F8047B5946381DFFF710
:1069CC00E7FD8642F5D33B684A46DB6841463846CC
:1069DC009847EEE700232373DEE700BF00ED00E0ED
:1069EC002DE9F341164B5B68C3F3080305460F46CC
:1069FC001BBBFFF741FE00F124030446406A0193E0
:106A0C00FEF79EFED4E90063462406EB8308B045EE
:106A1C0009D101A8FFF761FFA542B4BF00200120F6
:106A2C0002B0BDE8F08156F8040B39460430FFF78C
:106A3C00AFFD8442A8BF0446E9E70020F0E700BFA1
:106A4C0000ED00E070B50446D0E900020B4600EB07
:106A5C008202824207D001461D6851F8046BAE4297
:106A6C0003D00846F5E7002070BD521A01F074FA05
:106A7C006368013B63600120F6E71FB500F1240356
:106A8C000446406A01910393FEF75AFE01A9204681
:106A9C00FFF7D8FF18B163680BB9FFF715FE03A811
:106AAC00FFF71BFF04B010BD70B5D0E904561823D6
:106ABC00044603FB0656AE4215D005F110012046E4
:106ACC00FFF7C0FF63680BB9FFF7FEFDE0692969AA
:106ADC000368DB689847696919B1206A0368DB6849
:106AEC0098471835E7E7D4E90453182606FB0356F4
:106AFC00AE4204D0284600F085FD1835F8E7002397
:106B0C00636170BD73B50446FFF7DEFD04F1240329
:106B1C00606A0193FEF714FE2046FFF7C5FF01A83B
:106B2C00FFF7DBFE606A08B1FEF702FED4E90453FE
:106B3C00182606FB0356AE4204D0284600F062FD30
:106B4C001835F8E72069FFF76FF82068FFF76CF845
:106B5C00204602B070BD00000148FFF7D3BF00BF54
:106B6C0088E503208842F8B506460C46154627D919
:106B7C00904226D2A2F114056C1AA1F11407044418
:106B8C000026AF423DD0A4B12B682360AB88A38014
:106B9C00B5F90630E380C4E902662661AB68A360F0
:106BAC00AE60E368EA68E260EB6023692A692261FF
:106BBC002B6105F10800FFF727FE143D143CE0E7BC
:106BCC001FD00027AC421CD0A6B123683360A38829
:106BDC00B380B4F90630F380C6E902773761A36855
:106BEC00B360A760F368E268F260E360336922691E
:106BFC003261236104F10800FFF706FE14341436E9
:106C0C00E0E7F8BDF8B5D0E901539D4204460E46C5
:106C1C0017460DDB0135002D006804DDA900FFF7D8
:106C2C000BF818B9F8BDFEF7FFFF00202060A56037
:106C3C002568626805EB86019200A2EB8602081DAE
:106C4C0001F08AF945F8267063680133636001200E
:106C5C00E8E737B500F124030446406A01930D467A
:106C6C00FEF76EFDD4E9003103EB810083421A4636
:106C7C000BD01268AA4203F10403F7D101A8FFF765
:106C8C002CFE0025284603B030BD2A462046FFF7CF
:106C9C00B9FF05460028F1D06368012B01D1FFF73D
:106CAC0007FD01A8FFF719FEECE78842F8B504468A
:106CBC000D46164614D9904213D2A2F11006751A3D
:106CCC00A1F110072C44B74218D01CB13146204614
:106CDC0000F014FD304600F095FC103E103CF2E73D
:106CEC000CD0B5420AD01CB12946204600F006FD56
:106CFC00284600F087FC10351034F2E7F8BD70B56B
:106D0C000E1E054611DD3001FEF786FF044658B114
:106D1C00D5E9001201EB0212FFF7C7FF2868FEF756
:106D2C0083FF2C60AE60012070BD0024F6E72DE9D6
:106D3C00F04F914697B000230391D9F804100C93AF
:106D4C0046229942C0E90033C0E90233C0E904335A
:106D5C00CDE90A330446027623DCD9E90057142323
:106D6C0003FB0757AF423BD029460DA800F0C6FCE9
:106D7C000DA911A80B9E00F0C1FCDDE90B13994283
:106D8C001BDA0A9B0B9A03EB061603EB0212314635
:106D9C0006F11000FFF789FFEEB90B9B01330B9343
:106DAC0011E00AA8FFF7ABFF0028D6D10AA8FFF71D
:106DBC003FFD204617B0BDE8F08F01310AA8FFF760
:106DCC009EFF0028DDD111A800F01CFC0DA800F0DE
:106DDC0019FC1435C6E711A9304600F08FFCDCE72E
:106DEC000026CDE90D660F9637464FF0140ADDE903
:106DFC000A239E4280F297803301D35808930BB933
:106E0C000136F4E70AFB06F3099702930DAD09A9C5
:106E1C0008A8FFF700FB83460028F1D00146099A29
:106E2C008DF81F700DF11F032846FFF773FB9DF8BB
:106E3C001F800190B8F1000F66D1BDF82430ADF879
:106E4C004830CDE913884FF6FF73CDF844B0ADF858
:106E5C004A30CDF85480D5E9013293421ADB03F164
:106E6C00010BBBF1000F4ADD0AFB0BF0FEF7D4FE61
:106E7C000490002845D0D5E900120AFB0212FFF756
:106E8C0071FE049B28680493FEF7CEFE049B2B60D6
:106E9C00C5F808B0019BD5F800B06A680AFB03F38B
:106EAC000BEB030101F114000AFB02B204910593F0
:106EBC00FFF758FE0499A9B1059B119A4BF80320D2
:106ECC00BDF848308B80BDF94A30CB80C1E90277E0
:106EDC000F61139B8B60149B1397CB60159B1497BE
:106EEC000B6115976B6801336B6013A8FFF78CFC73
:106EFC00B8F1000F08D00DA8FFF786FC56E7434603
:106F0C00C0E74FF00108F0E7019B2D680AFB035521
:106F1C00089B1B782BB9D9F80030029A13441B7CC0
:106F2C00EB80083573E72168226062686360A368B0
:106F3C000B920C9A0C93E368A2600D9A0D93236943
:106F4C00E2600E9A0E93636922610F9A0F93039B72
:106F5C000A9162612376CEE77FB50546094B45F869
:106F6C00043B04460E4601A81146FDF752FB01AA4C
:106F7C0031462846FFF7DBFE01A8FDF709FB20464A
:106F8C0004B070BDE8850D00F0B50F4687B02649FA
:106F9C000C9C384616461D4601F03BF800BBE4B18C
:106FAC0029466846FFF78AFC2049242000F096FF0A
:106FBC00054670B1694603A8FDF72BFB03AA3146C1
:106FCC002846FFF7C9FF03A8FDF7E2FA184B2C621D
:106FDC002B606846FDF7DCFA2C46204607B0F0BD66
:106FEC001449384601F015F8E0B9002CF5D02946C3
:106FFC006846FFF763FC0D49242000F06FFF05463F
:10700C000028E6D0694603A8FDF703FB03AA314626
:10701C002846FFF7A1FF03A8FDF7BAFA064B2B6031
:10702C002C62D6E70024D8E7B2890D00508B0D00F6
:10703C00488A0D00B6890D00308A0D00014B024ABA
:10704C001A60704784E50320C7890D002DE9F047CD
:10705C00089DD0F8209004460E461746984600F03E
:10706C00C1FD81454CD02B79190704D56A69544967
:10707C002046FFF740FAB8F1000F0DD05B212046F7
:10708C00FFF72DFA41462046FFF71AFA23684D49BF
:10709C00DB680222204698472B79DA0723D5D5F8EE
:1070AC0008802F21404601F006F808B100F10108D4
:1070BC0041462046FFF704FA2B799B0708D53A2165
:1070CC002046FFF70CFAEA683F492046FFF713FA0F
:1070DC002A79236812F0040FDB6814BF3B493C4942
:1070EC000222204698472B7958071DD529690B4653
:1070FC001A4613F8010B60B1202808D11946F7E79E
:10710C00344800F066F90028ADD0BDE8F087282897
:10711C00EED12368521ADB682046984723682E4923
:10712C00DB6804222046984700213846FEF798FC7D
:10713C0001462046FFF7C4F923682549DB68022283
:10714C00204698471EB131462046FFF7B9F92B79F6
:10715C0013F0300F2CD023682049DB680222204624
:10716C0098472B79D9060AD523681D49DB68072275
:10717C0020469847AA691B492046FFF7BCF92B7992
:10718C009A0611D5DB0605D523681049DB68022267
:10719C002046984723681449DB6820460A22984702
:1071AC00E9692046FFF78CF95D212046FFF797F936
:1071BC0023680E49DB6820460222BDE8F0471847D9
:1071CC00CB890D00D2890D0076870D00D5890D0075
:1071DC00DA890D00B0E50320D8890D00DD890D009A
:1071EC00E0890D003A830D00E8890D00F3890D004C
:1071FC002DE9F04385B0D0F820900C9C05460F4645
:10720C0090461E4600F0EEFC814505D1494800F041
:10721C00E0F8002840F08A802B6A474A01924FF030
:10722C00000901A803938DF80890FFF73CF8494634
:10723C004046FEF715FC41498046012201A8FFF7A4
:10724C00BBF84146FFF72EF93FB13D49012201A899
:10725C00FFF7B2F83946FFF725F93EB1394901225B
:10726C0001A8FFF7A9F83146FFF71CF92379DF07CE
:10727C000ED5A6682F21304600F01DFF00B1461C2C
:10728C003149012201A8FFF797F83146FFF70AF9B7
:10729C0023799E0707D52D49022201A8FFF78CF808
:1072AC00E168FFF70DF82379580714D526693346A2
:1072BC001F4613F8012B2AB1202A01D11E46F7E7ED
:1072CC00282AF5D12249022201A8FFF775F8BA1B2A
:1072DC003146FFF781F82379190707D51D4901229B
:1072EC0001A8FFF769F86169FEF7FCFF2379DA065C
:1072FC0008D5042218490DEB0200FFF75DF8A169CF
:10730C00FEF7DEFF23799B0607D51449062201A858
:10731C00FFF752F8E169FFF7C5F801A8FEF7ADFFDA
:10732C00286A0F4903680222DB68984705B0BDE85C
:10733C00F08300BFB0E50320188A0D00A8890D006A
:10734C00F6890D00F8890D00FA890D00FC890D00F5
:10735C00FF890D00028A0D00048A0D00098A0D00B8
:10736C00F3890D00002340681A46FEF7F5BB406810
:10737C0000220221FEF700BC002240681146FEF7F5
:10738C00F3BB002240681146FEF7FEBB00234068A9
:10739C001A461946FEF700BC002340681A461946E7
:1073AC00FEF702BC40680021FEF726BC40680021B5
:1073BC00FEF72ABC4068002281F00101FEF7FCBBFD
:1073CC0040680022FEF708BC002240681146FEF718
:1073DC000BBC002240681146FEF7F6BB2DE9F043CA
:1073EC00002495B016460D460746FEF7E7FD2146EC
:1073FC0018220EA8009400F0C9FD4023CDE90C34EE
:10740C0021466B460CAA3046FEF772FA0446002859
:10741C0046D1024601216868FEF7B6FB0221804680
:10742C0022466868FEF7B0FB009E81462146002E7E
:10743C0036D0002934D17368022B03D00A2B0BD021
:10744C00F669F4E7B8F1000F04D0716938460431DD
:10745C00FEF7E1FD4146F3E7B9F1000F01D14946D2
:10746C00EEE77469102201A800F090FD06238DF858
:10747C00143001AD04F108031834186859682A4611
:10748C0003C20833A3421546F7D101A906A807ADDC
:10749C00FEF7A2FD0FCD3C1D0FC42B682370DEE759
:1074AC000098FEF71DFA384615B0BDE8F0830000D1
:1074BC00024B034A1A6000225A607047B0E5032061
:1074CC00908A0D00F8B506460D468F180024BD4273
:1074DC000CD0336815F8011B9B6830469847031E87
:1074EC0001DB1C44F3E7002C08BF1C462046F8BD0A
:1074FC0013B50446084659B1019100F09CFD236870
:10750C000199DB680246204602B0BDE810401847DE
:10751C0002B010BD03689B68184738B50D210546AD
:10752C00FFF7F8FF0A2104462846FFF7F3FF204433
:10753C0038BD38B50546FFF7DBFF04462846FFF794
:10754C00ECFF204438BD30B58BB000238DF82430CF
:10755C00012A98BF0A2209AC0D46B1FBF2F101FBDE
:10756C00125303F0FF03092B94BF30333733DBB2D4
:10757C00AA4204F8013DEFD92146FFF7B9FF0BB041
:10758C0030BD2DE9F04186B000AF05460E46381DE2
:10759C00142114463B60FEF767FB13280ED8391DE7
:1075AC002846FFF7A5FF04461EB12846FFF7B5FF96
:1075BC00044420461837BD46BDE8F08100F10803AD
:1075CC0023F00703E846ADEB030D2246411C3B6854
:1075DC006846FEF749FB69462846FFF789FF0446D3
:1075EC00C546E1E7014B00229A607047B8E50320DD
:1075FC0010B5044608462170FEF782F9002363603B
:10760C00204610BD10B504460068FEF70DFB204661
:10761C0010BD10B50446006808B1FEF705FB002349
:10762C00C4E90133236010BD38B504460D4600682B
:10763C000131FEF701FB10B1C4E90005012038BD92
:10764C0010B50368044623B143688B4201D3012073
:10765C0010BD2046FFF7E8FF0028F9D0A368002BE7
:10766C00F5D122681370F2E737B50D461146019239
:10767C000446FFF7E5FF019A28B92046FFF7C9FF3A
:10768C00204603B030BDA2602946206800F056FCAD
:10769C002268A3680021D154F2E7002313B5C0E996
:1076AC00003304468360037341B10846019100F036
:1076BC00C2FC019902462046FFF7D6FF204602B0D5
:1076CC0010BD38B5054600680C4668B16A688B6811
:1076DC009A4207D3096800F0A6FCA368AB600023AC
:1076EC00A36038BDFEF7A0FA23682B6063686B605B
:1076FC00A368AB600023C4E90033F1E710B50023A5
:10770C00C0E90033044683600373FFF7DAFF2046B9
:10771C0010BD884210B5044605D00B682BB18A68A1
:10772C001946FFF7A1FF204610BDFFF772FFFAE7DD
:10773C0010B500230446C0E9003383600373FFF7E0
:10774C00E8FF204610BD00000EB470B587B00BAD3D
:10775C00044655F8042B01922B46052104A80395E9
:10776C00FEF782FA0B4906462046FFF796FF314694
:10777C002046FFF765FF206830B1019A03952B4630
:10778C00711CFEF771FAA060204607B0BDE870408E
:10779C0003B07047F5890D00054B02221A60054BAA
:1077AC00054A9A600020186098809871FEF770B9AD
:1077BC00D4E50320C8E503200000FFFF08B5002036
:1077CC00FEF7BAF928B1FEF7AFF980F00100C0B2AC
:1077DC0008BD0120FCE71FB502460B466846002198
:1077EC00CDE90023CDE90211FDF7E2FF024610B905
:1077FC000146FEF775F905B05DF804FB30B504469B
:10780C001848D0E90010521840EB03031648D0E991
:10781C000010521893B040EB0303CDE9002324224F
:10782C000DEB0200002100F0B1FB002509A9684610
:10783C00FEF732FA1622294603A8029500F0A6FBA1
:10784C0002A909A800F04EFB02A800F0F4FB12AB51
:10785C00184402A900F8415C2046FFF71EFF2046A1
:10786C0013B030BDE8E50320E0E503202DE9F04F2F
:10787C00A5B00746884614A811463F221D4600F0C5
:10788C0007FC002314A88DF88F3000F0D4FB0446BD
:10789C005DBB2A4903A800F0C6FB14AE002504F119
:1078AC00FF3BAB4536D9B14605F1010A19F8013B4E
:1078BC00252B17D173787A2B14D103A800F0BBFBBE
:1078CC0014AB044628181844ABEB0502B11C00F0AD
:1078DC0035FB224603A9304600F030FB14A800F01B
:1078EC00AAFB04464E465546D9E73C2195FBF1F3DD
:1078FC00002BB8BF5B42B3FBF1F201FB12330093D8
:10790C000F4A4FF46163102103A895FBF3F3FEF7C4
:10791C00A3F9C2E700212E2208A8079100F036FB3C
:10792C00434614AA322107A8FEF7AEF907A9384638
:10793C00FFF7B3FE384625B0BDE8F08FC48A0D00C2
:10794C00C68A0D00F0B58DB0CDE90023129D04461A
:10795C0015B9194B1D682DB1184B2846196800F044
:10796C0058FB38B9DDE900232046FFF747FF2046D6
:10797C000DB0F0BD124E0099124FD6E900325B18D3
:10798C00019941EB0202D7E900011B1841EB0202FD
:10799C00CDE900320021242203A800F0F7FA03A954
:1079AC006846FEF779F932683B6803A91344204610
:1079BC002A46FFF75BFFDAE7DCE5032030E403201F
:1079CC00E8E50320E0E5032010B50020FDF7E8FE14
:1079DC000446A0B9FEF754F8012810D12046FEF752
:1079EC0077F860B9FFF7EAFE10B9FEF795F8F9E7FA
:1079FC00FFF7E4FEBDE810400020FDF7D1BE2046A5
:107A0C0010BD0000024B1A68024B1A60704700BF91
:107A1C0030E40320DCE50320704741747047704765
:107A2C0008B5007CFDF7BCFF20EAE07008BD08B586
:107A3C00007CFDF78DFF20EAE07008BD08B5007CE6
:107A4C00FDF796FF40EAE07008BD08B5007CFDF735
:107A5C0087FF40EAE07008BD007CFDF791BF37B5A9
:107A6C00457C04462DB1207C03B0BDE83040FDF7C9
:107A7C0067BF007C0191FDF793FF00280199F2DCB0
:107A8C00284603B030BD10B51421044600F024FA8A
:107A9C00204610BD10B54FF0000C044608461146A8
:107AAC004FF47A72C4E901C2044A226001222074A4
:107ABC0062741A46FDF734FF204610BDF88A0D009B
:107ACC00007C0023FDF774BF0022FFF7F9BF007C98
:107ADC00FDF72EBF13B50D4C2178BFF35B8F11F062
:107AEC00010110D120460191FCF7DEFA019950B149
:107AFC00074B084A0848FFF7CDFF2046FCF7D9FA98
:107B0C00064800F015FA044802B010BDF0E5032059
:107B1C0078E60320F4E50320FCE603202B7A0D0025
:107B2C00417470477047704708B50021007CFDF721
:107B3C006FFF40EAE07008BD08B50121007CFDF73D
:107B4C0067FF40EAE07008BD08B5007CFDF758FF00
:107B5C0020EAE07008BD08B5007CFDF749FF20EA7B
:107B6C00E07008BD13B50446007C0191FDF748FF99
:107B7C000028019901DC607C20B1207CFDF750FFCE
:107B8C0020EAE07002B010BD007CFDF751BF10B5CB
:107B9C001421044600F0A0F9204610BD10B54FF496
:107BAC007A73044608460021C4E90113044B236090
:107BBC000123207463741146FDF702FF204610BDAB
:107BCC00288B0D00007C0022FDF702BF007CFDF726
:107BDC0007BF10B514220446002100F0D7F9204647
:107BEC0010BD000010B50F4C88B003A8FFF7F1FFD3
:107BFC002178BFF35B8F11F001010FD12046019169
:107C0C00FCF752FA019948B103AA0748FFF7C6FFDF
:107C1C002046FCF74EFA054800F08AF9024808B0F5
:107C2C0010BD00BF10E7032014E70320317B0D00CB
:107C3C00014B1860704700BF34E4032008B50B4BB0
:107C4C0043B1FFF7CFFF03681B699847002801DD9C
:107C5C00AFF30080064B43B1FFF73CFF03681B6991
:107C6C009847002801DDAFF3008008BD000000003C
:107C7C000000000008B5FFF7E1FFFDF789FD014B9F
:107C8C00186008BD3CE703200548064A064908B5BC
:107C9C00121A00F053F9054B054A1A6008BD00BFD3
:107CAC0000F4032004F40320E08C0D0000F4032006
:107CBC001E1C279A07B5002300931A466FF0770114
:107CCC00FDF720FF03B05DF804FB000007B5438807
:107CDC000A2B08D0502B0BD1094B1B684BB103B0AE
:107CEC005DF804EB1847FFF7E5FF03B05DF804FB04
:107CFC00002300931A466FF07701FDF703FFF4E7BA
:107D0C002CE7032010B512480021FDF7B5FF114BED
:107D1C001A68114B9A42114B0CBF012200221A70A7
:107D2C0001D0FFF7B1FFFDF723FD044600F036F953
:107D3C000B4B13B12046AFF3008000210848FDF730
:107D4C0003FFBDE8104007480021FDF7D1BE00BF7E
:107D5C003D7C0D0000F403201E1C279A28E703200D
:107D6C0000000000D97C0D00232813B502D9002097
:107D7C0002B010BDA0F10B03022B1AD8174C2178BE
:107D8C00BFF35B8F11F001010BD120460191FCF781
:107D9C008BF9019928B11248FFF72AFC2046FCF711
:107DAC0088F90F4B1878FDF7B3FD0028DFD10120BF
:107DBC00DEE7012809D800F06BF80021007CFDF704
:107DCC005FFD80F00100C0B2D2E709380128EED87F
:107DDC00FFF780FE007CFDF7DBFDF2E730E70320C8
:107DEC0034E70320232838B504460D460AD8FF296A
:107DFC0008D0FFF7B9FF28B129462046BDE8384026
:107E0C00FDF7DEBC38BD38B504460D46FDF7E0FC89
:107E1C00FF2810D0062804D84D2323FA00F0C307FE
:107E2C0009D42046FFF7A0FF28B129462046BDE81B
:107E3C003840FDF7D5BC38BD10B50446FDF7C8FC7D
:107E4C00031FDBB2012B08D92046FFF78DFF20B1B1
:107E5C002046BDE81040FDF7CBBC002010BD70479C
:107E6C0038B5002320254380142304460380856005
:107E7C0005610649284600F033F80449606028463D
:107E8C0000F02EF8E060204638BD00BF508B0D008E
:107E9C0030B50E4D2978BFF35B8F11F0010487B01C
:107EAC0011D12846FCF700F968B101A8FFF7D8FFFB
:107EBC0001AA21460648FDF7E3FF2846FCF7F9F82E
:107ECC00044800F035F8024807B030BD40E7032005
:107EDC0044E703206B7E0D00FCF7D9B8FCF7D3B850
:107EEC00FCF7D3B810B50C4641690369826986B0BA
:107EFC0001F26C71049101680391416802918168EF
:107F0C000191C1680091074903EB43030B440649F7
:107F1C0002EB42020A4420460449FDF795FE204636
:107F2C0006B010BD868B0D00718B0D00518B0D00B2
:107F3C00002301461A46184600F056B90A449142ED
:107F4C0000F1FF3300D1704710B511F8014B03F865
:107F5C00014F9142F9D110BD884210B501EB0204DA
:107F6C0002D98442234607D8431EA14208D011F8F7
:107F7C00012B03F8012FF8E7024401468A4200D195
:107F8C0010BD13F8014D02F8014DF7E7024403460A
:107F9C00934200D1704703F8011BF9E738B50D4B3C
:107FAC001D68AB6B04467BB91820FDF735FE0A4AF9
:107FBC000A4BA863C0E90023094B83600B23838120
:107FCC0001220023C0E90423AB6B00221C615A611F
:107FDC0038BD00BF34E403200E33CDAB34126DE654
:107FEC00ECDE0500C9B2034610F8012B1AB18A4227
:107FFC00F9D118467047002918BF0023F9E710B5CE
:10800C000446FFF7EFFF18B9204600F014F820449F
:10801C0010BD10F8012B11F8013B012A28BF9A4220
:10802C00F7D0D01A7047034611F8012B03F8012B37
:10803C00002AF9D17047034613F8012B002AFBD113
:10804C00181A0138704730B5044625782346013498
:10805C00002DFAD1013A04D311F8014B03F8014B6E
:10806C0004B930BD002AF5D11A70F3E710B56AB126
:10807C000139841810F8013B11F8012F934203D1F8
:10808C00A04201D0002BF5D1981A10BD1046FCE788
:10809C0010B50139034632B111F8014F03F8014B09
:1080AC00013A002CF7D11A440021934200D110BDA3
:1080BC0003F8011BF9E738B503460C4669B9BDE86E
:1080CC003840FFF78FBF431C054621461846FFF783
:1080DC0089FF0028F7D1284638BD0025F5E70000B8
:1080EC002DE9F0473A4E86468C4660461CF8014B0B
:1080FC00A55D15F00805F8D12D2C33D19CF8004066
:10810C004FF0010800F1020C002B5CD0102B0CD1AD
:10811C00302C0AD19CF8000000F0DF0058284DD11B
:10812C009CF8014010230CF1020C08F10047013FB0
:10813C000026B7FBF3F9304603FB197AA4F130059E
:10814C00092D18D82C46A34224DD751C07D0814577
:10815C001DD301D1A2451ADB00FB034001261CF8FC
:10816C00014BEBE72B2C08BF9CF80040A84608BF3E
:10817C0000F1020CC8E7A4F14105192D01D8373CD8
:10818C00E1E7A4F16105192D04D8573CDBE74FF06A
:10819C00FF36E4E7731C06D12223CEF800303846B4
:1081AC0042B9BDE8F087B8F1000F00D04042002A78
:1081BC00F7D00EB10CF1FF311160F2E73024002B37
:1081CC00B3D10823B1E7302CA4D00A23ADE700BF0C
:1081DC00AB8B0D0013460A46014602480068FFF7B8
:1081EC007FBF00BF34E403202DE9F843DFF8B880EB
:1081FC000646D8F800001F460D46914600F056F88A
:10820C00254B1C6834B9254C1C60254B13B11B68DD
:10821C00C4F8883063681F2B07DDD8F8000000F025
:10822C0047F84FF0FF30BDE8F8834EB3D4F8880020
:10823C0088B91C4B23B9D8F8000000F038F8F0E7E7
:10824C004FF48470FDF7E8FC0028F4D00023C0E95B
:10825C004033C4F88800636840F8239001229A40A8
:10826C0000EB8301D0F800311343022EC0F800312B
:10827C00C1F8807002BFD0F804311A43C0F8042151
:10828C006368D8F800005A1C0233626044F823502B
:10829C0000F00EF80020C6E7E4E7032058E70320BF
:1082AC0000000000255C0D0098E403207047704727
:1082BC00704700001D400D0059400D0081400D001D
:1082CC0085400D000000000069326320646576690A
:1082DC00636528732920666F756E642061743A207B
:1082EC0000253032582000556E6B6E6F776E20650E
:1082FC0072726F7220617420616464726573732092
:10830C0025303258004E6F2049324320646576691F
:10831C0063657320666F756E640044697374616E77
:10832C006365206D65617375726564203D202569F8
:10833C000025642C25642C2564006E6F2073616D00
:10834C00706C650044657669636573206F6E206C94
:10835C00696E65207769746820706F77657200505C
:10836C006F776572696E6720646F776E20746865CD
:10837C002073656E736F7220626F61726400446566
:10838C007669636573206F6E2D6C696E65207769F5
:10839C0074686F757420706F776572004142313864
:1083AC003035206465746563746564004272696E6F
:1083BC0067696E672073656E736F72732062616399
:1083CC006B206F6E2D6C696E650044657669636514
:1083DC0073206F6E2D6C696E6520776974682070E0
:1083EC006F77657220726573746F726564004C49A7
:1083FC005333444820496E697469616C697A6564C9
:10840C00207375636365737366756C6C79004C4986
:10841C0053334448206661696C656420696E6974E5
:10842C0069616C697A6174696F6E00544F462053B0
:10843C00656E736F7220496E697469616C697A65D7
:10844C0064207375636365737366756C6C79005423
:10845C004F462053656E736F72206661696C65645C
:10846C0020696E697469616C697A6174696F6E00F8
:10847C00506F776572206F6E207465737420636F14
:10848C006D706C657465202D206D656173757269F6
:10849C006E6720726573756D656400506F776572D9
:1084AC00206F6E2074657374206661696C6564203E
:1084BC002D2073746F7070696E67004652414D20A9
:1084CC004D6F64756C6520696E697469616C697A4D
:1084DC00696E672076657273696F6E202569004638
:1084EC0052414D2074657374206661696C65642C0F
:1084FC0020657870656374656420256920616E64FD
:10850C0020666F756E64202569004652414D204DE2
:10851C006F64756C65206C6F616465642073756342
:10852C006365737366756C6C790041423138303514
:10853C00204661696C656420746F20496E697469AA
:10854C00616C697A6500496E697469616C697A61FC
:10855C0074696F6E20436F6D706C65746520616C0F
:10856C006C2064657669636573206F6E2D6C696E23
:10857C0065005374617274696E6720612072756E48
:10858C006E696E672073616D706C652072756E001C
:10859C002A2A2A2A2A2A2A2A2A2A2A2A2A2A2A2A2F
:1085AC002A2A2A2A2A2A2A2A2A2A2A2A2A004572E6
:1085BC00726F727320696E20496E697469616C699F
:1085CC007A6174696F6E202D2053746F7070696EB0
:1085DC006700000000000000000000000000000028
:1085EC0000000000A1400D00C5400D00000000007F
:1085FC0000000000F9400D002D410D0059700D00D8
:10860C00C7400D000000000000000000D1400D002C
:10861C00E5400D0065550D00FB550D007D560D0018
:10862C002A000000646576696365206E6F742066AD
:10863C006F756E6400000000000000000000000078
:10864C0095470D0097470D0095480D00ED470D001F
:10865C00A5470D0000000000000000006F4A0D004F
:10866C004F4A0D00394A0D00F5490D002B4A0D00FB
:10867C00114A0D00F7490D0000010101020002082A
:10868C00000810010100000000FF000F00000000B6
:10869C0000200B0000020A2100000500000000C8A9
:1086AC00000038FF010008000001DB0F01F10D0193
:1086BC0068008008B8000000000F8900000000006E
:1086CC000000010F0D0E0E000002C7FF9B00000002
:1086DC000100006661696C656420746F20726561CD
:1086EC006420726567416464723D25303278206382
:1086FC006F756E743D2575006661696C65642074D8
:10870C006F207265616420726567416464723D25F7
:10871C0030327820737461743D256400464F555493
:10872C0020646964206E6F7420676F204849474845
:10873C00006E6F74206465746563746564006661B3
:10874C00696C656420746F2077726974652072653A
:10875C0067416464723D2530327820737461743DD6
:10876C002564007365745744542025640077617444
:10877C006368646F6720636C656172656420625224
:10878C006573756C743D2564007761746368646F00
:10879C00672073657420666F7572536563733D252E
:1087AC00642062526573756C743D256400574154A6
:1087BC004348444F4700444545505F504F5745523E
:1087CC005F444F574E00434F554E54444F574E5FE6
:1087DC0054494D455200414C41524D006661696C03
:1087EC0075726520696E2075706461746557616B74
:1087FC0065526561736F6E2025640077616B65202F
:10880C00726561736F6E203D2025730025303464D2
:10881C002D253032642D2530326420253032643AD7
:10882C00253032643A2530326400676574527463C3
:10883C004173546D202573007365742073797374C0
:10884C00656D20636C6F636B2066726F6D20525484
:10885C0043202573006661696C656420746F206425
:10886C006574656374204142313830350061707035
:10887C002E6162313830350000000000000000002D
:10888C00874D0D00894D0D00EB510D0071520D00FF
:10889C00777269746544617461206661696C6564A2
:1088AC0020647572696E67206572617365206672EB
:1088BC00616D416464723D2575000000000000008C
:1088CC0000000000B5540D00B7540D0065550D00A7
:1088DC00FB550D007D560D0000000000000000004F
:1088EC007F5D0D00755D0D006B5D0D00215D0D0054
:1088FC005F5D0D00535D0D00B1730D00B9730D007C
:10890C00475D0D003F5D0D00355D0D002B5D0D00CD
:10891C00E9730D000000000000000000175E0D0060
:10892C000D5E0D00035E0D00F95D0D00ED5D0D009B
:10893C00E15D0D00B1730D00B9730D00D55D0D0037
:10894C00CD5D0D00C35D0D00B95D0D00E9730D002B
:10895C000000000000000000355E0D007F5E0D0081
:10896C00575E0D00375E0D005F5E0D00675E0D00FB
:10897C006F5E0D00775E0D0000000000000000002F
:10898C00655F0D00555F0D00575F0D007525303488
:10899C007800626175640053657269616C0053659F
:1089AC007269616C31004A534F4E53747265616D3C
:1089BC004C6F6748616E646C657200617070002565
:1089CC003031307520005D20002C200028293A2001
:1089DC0000205B00636F6465203D2000646574615A
:1089EC00696C73203D20000D0A006D006300660069
:1089FC006C6E00666E007400636F64650064657471
:108A0C0061696C00000000000000000021640D0092
:108A1C0047640D0005640D0065600D00000000004A
:108A2C000000000075680D008D680D0059700D0078
:108A3C00C7400D000000000000000000A1680D0000
:108A4C00B5680D00FD710D000D640D0000000000F7
:108A5C00000000001F640D0055640D00956F0D00A3
:108A6C000F640D0000000000000000001D640D00EC
:108A7C0063640D00BD670D0081640D0000000000F3
:108A8C000000000071730D007B730D0085730D00E9
:108A9C008F730D0099730D00A5730D00B1730D004C
:108AAC00B9730D00C1730D00CD730D00D5730D009E
:108ABC00DF730D00E9730D005A00252B3033643A37
:108ACC00253032750025592D256D2D2564542548EA
:108ADC003A254D3A2553257A0061736374696D65A7
:108AEC00000000000000000000000000257A0D00CE
:108AFC00937A0D006B7A0D00D1740D003B7A0D004A
:108B0C00577A0D00497A0D00657A0D00277A0D0011
:108B1C002D7A0D000000000000000000337B0D00DA
:108B2C009B7B0D00717B0D00D1740D00637B0D00E0
:108B3C00357B0D00457B0D00957B0D00557B0D00A5
:108B4C002D7B0D0000252E337320252E33732533FA
:108B5C006420252E32643A252E32643A252E326456
:108B6C002025640A0053756E4D6F6E5475655765FC
:108B7C00645468754672695361744A616E466562E5
:108B8C004D61724170724D61794A756E4A756C41D6
:108B9C0075675365704F63744E6F76446563002040
:108BAC002020202020202020282828282820202091
:108BBC002020202020202020202020202020208841
:108BCC0010101010101010101010101010101004A5
:108BDC0004040404040404040410101010101010F5
:108BEC0041414141414101010101010101010101E9
:108BFC0001010101010101010101101010101010FF
:108C0C0042424242424202020202020202020202B8
:108C1C0002020202020202020202101010102000D4
:108C2C000000000000000000000000000000000038
:108C3C000000000000000000000000000000000028
:108C4C000000000000000000000000000000000018
:108C5C000000000000000000000000000000000008
:108C6C0000000000000000000000000000000000F8
:108C7C0000000000000000000000000000000000E8
:108C8C0000000000000000000000000000000000D8
:108C9C0000000000000000000000000000000000C8
:108CAC0085460D00A5540D00115D0D00895D0D006C
:108CBC00215E0D0049700D00BD740D00F1750D00A5
:108CCC00A5770D00117A0D000000000000000000D7
:048CDC000000000094
:048CE0000000000090
:108CE40001000000D0070000608A0D00788A0D00A2
:108CF400E58A0D0038E403200000000000000000B5
:108D0400000000000000000000000000000000005F
:108D1400000000000000000000000000000000004F
:108D2400000000000000000000000000000000003F
:108D3400000000000000000000000000000000002F
:108D4400000000000000000000000000000000001F
:0C8D54000000000000000000E9E7032020
:108D6000FFFFFFFF00000102030405060708090AD0
:108D70000B0C0D0E0F101112131415161718191ACB
:088D80001B1C1D1E1F20280012
:048D880078563412D3
:04000003D000401CCD
:00000001FF
