:02000002D0002C
:1040000000400D0008900D00000006000D000501A5
:084010000401FD08000000009E
:0440180074840D009F
:10401C0009480A49884208B505D0094A824202D0AB
:10402C00121A04F065F80748074A0021121A04F026
:10403C0087F8014808BD00BF18E40320648F0D0009
:10404C0094E4032098E40320F1E7032070B5074EB5
:10405C00074C03F031FFA41BA4080025A54200D196
:10406C0070BD56F8043B98470135F7E7388F0D00C3
:10407C00608F0D0000F01CBA08B500F0C7F8BDE861
:10408C00084003F0D1BE01F075BE01F073BE01F023
:10409C0079BE000008B5034A00210C2001F07EFD1A
:1040AC00FEE700BFC9580D000078B0FA80F0400957
:1040BC0070470123037070477047006A0368DB6820
:1040CC0018470000014B01221A7070472CE50320A1
:1040DC0010B5034B0360044601F0BAF8204610BD3E
:1040EC0080880D0010B50446FFF7F2FF2046102122
:1040FC0003F0CCFF204610BD0A4B10B504460360FC
:10410C0002F094FB214602F092FD03F045FE03F011
:10411C0037FE2046044B40F8043B02F075FC204669
:10412C0010BD00BF68880D0050880D0010B5044606
:10413C00FFF7E2FF2046242103F0A8FF204610BD24
:10414C000EB410B58DB00FAA016852F8044B03924F
:10415C0000232020CDE90403CDE900421E2004AA4F
:10416C0001F024FD0DB0BDE8104003B07047000015
:10417C0070B5A2B02049214E802202A804F062F84A
:10418C000125002403F05EFFE9B201F06BFF03F0A0
:10419C0059FF01F072FFA8B904212B4632460DEBF2
:1041AC00010001F007FE04220DEB020102A801340C
:1041BC0004F023F8092C14D1114802A9FFF7C0FF11
:1041CC0001200CE004280CD10E4A2B46802102A8B9
:1041DC0001F0F0FD0A4802A9FFF7B2FF002022B05F
:1041EC0070BD01357F2DCDD1002CE5D1064902A83B
:1041FC0003F0F3FFEEE700BF88840D00A1840D00EF
:10420C0080E50320A7840D00C5840D00F0B5864C15
:10421C0091B001F05BFB2368C01A844B1B68984279
:10422C0035D901F053FB824B20601B78D3B1814808
:10423C00804C01F0D6F9204601F0D9F918B90120CB
:10424C0001F0E8FDF7E77B4801F0DFF903907948CE
:10425C0001F0C4F9774801F0C7F9039A7649774819
:10426C00FFF76EFF764B1B788BB1764808A900F0F0
:10427C0030FF002800F0BA80BDF924300093BDF95E
:10428C002020BDF9223070496C48FFF759FF6F4B65
:10429C001A78002A77D000226D4968481A70FFF707
:1042AC004FFFFFF765FF6B496448FFF749FF01219A
:1042BC00022003F082FE4FF47A7001F0ABFD6649E8
:1042CC005E48FFF73DFFFFF753FF644800F072FBB9
:1042DC0018B163495948FFF733FF62495748584CA6
:1042EC00FFF72EFF0021022003F067FE5E495348C2
:1042FC00FFF726FFFFF73CFF05A800F0B0FE5021AA
:10430C0005A800F0B9FE4F4805A900F039FF0028B8
:10431C0072D056494948FFF713FF012323704548D3
:10432C0001F04EF900286CD151494448FFF708FFC1
:10433C003F4B01221A702378002B67D03C4B1B7823
:10434C00002B63D04B493D48FFF7FAFE4A493B48E6
:10435C00FFF7F6FE00234949009301224FF0FF338B
:10436C00032001F0A1FE08A800F079FE102108A896
:10437C0000F08CFE334808A900F002FF18B1404948
:10438C002E48FFF7DDFE3F4C22786AB33E4B08AA5D
:10439C0003F11007154618685968164603C608330A
:1043AC00BB423246F7D11B8833800E2200210DF11F
:1043BC00320003F0C5FE00232248237000F0B5FE46
:1043CC00044688B1314E327882420DD0052803461E
:1043DC0025D020D82E4A2021284601F0EBFC174886
:1043EC002946FFF7ADFE347011B0F0BD03F0D4FCDC
:1043FC00284903F078F94AE727491048FFF7A0FE4F
:10440C008DE726490D48FFF79BFE94E724490B489E
:10441C00FFF796FEFEE7062803D1224ADBE7224A85
:10442C00D9E7224AD7E700BF04E503201CE40320A8
:10443C002EE50320DCE40320DA840D0080E5032064
:10444C002DE50320C4E40320F1840D0018E40320BF
:10445C0004850D001F850D003E850D00A4E403208E
:10446C005C850D006C850D008A850D00AE850D00F8
:10447C00EB850D0030860D005B860D00D1400D00E4
:10448C0079860D002CE5032094880D0000E50320AF
:10449C00C3860D00FA840D00CE850D000F860D002D
:1044AC00A3860D00DB860D00F7860D0014870D002A
:1044BC007FB503F0C7FD01F0A3FD0021032003F03D
:1044CC006BFD0121022003F067FD0021022003F0A7
:1044DC0074FD4FF47A7001F09DFCFFF749FE01A8C2
:1044EC0000F0BDFD502101A800F0C6FD4D484E4E18
:1044FC0001A900F045FE002871D04C494C48FFF74B
:10450C001FFE012333704B4801F05AF800286BD181
:10451C0049494748FFF714FE484B01221A70484896
:10452C00484C00F0ABFE012345480DF1030200217D
:10453C0000F0E6FE9DF803302A2B5DD042493C4842
:10454C002A22FFF7FDFD3E4800F0A2FE3F4A3C4800
:10455C000423002100F01FFF012339480DF1030251
:10456C00002100F0CDFE9DF803302A2B41D0002213
:10457C00227037492E482A22FFF7E2FD354D0823D9
:10458C00284601216B8100F0B7FC7C21284600F005
:10459C0097FA284600F00EFA0546002833D02E492B
:1045AC002348FFF7CDFD3378002B35D0234B1B78F8
:1045BC00002B31D02378002B2ED028491C48FFF734
:1045CC00BFFD4FF4FA7001F025FC25491848FFF7A0
:1045DC00B7FD24491648FFF7B3FD04B070BD22495E
:1045EC001348FFF7ADFD8EE720491148FFF7A8FDF2
:1045FC0095E701232370C1E701231D490C48237063
:10460C00FFF79EFDBAE71B490948FFF799FD237890
:10461C00002BC8D02570C6E717490548FFF790FD59
:10462C00FEE700BFC4E403202DE50320AE850D009A
:10463C0080E50320DCE40320EB850D002EE5032050
:10464C00F0E40320D8E4032030870D00B4880D007B
:10465C0054870D00A4E403205C850D00BB870D007E
:10466C00E7870D0005880D00CE850D000F860D0027
:10467C007F870D009F870D0023880D0070B5D0E952
:10468C0000531426044606FB0356AE4204D02846BB
:10469C0003F092F81435F8E7206801F073FB20461C
:1046AC0070BD8842F8B504460D46164616D99042A0
:1046BC0015D2A2F11406751AA1F114072C44B742B5
:1046CC001CD02CB13146204603F0F2F8337C237415
:1046DC00304603F071F8143E143CF0E70ED0B542AE
:1046EC000CD02CB12946204603F0E2F82B7C237425
:1046FC00284603F061F814351434F0E7F8BD2DE9C1
:10470C00F0410023C0E9003383604F689F420446A8
:10471C000E4623DD4FF0140808FB07F001F02AFBCE
:10472C000546D8B1D4E9001208FB0212FFF7B9FF15
:10473C00206801F027FB2560A760D6E9007308FB11
:10474C000378B84508D03946284603F0CBF83B7CB3
:10475C002B7414371435F4E7736863602046BDE896
:10476C00F081000070B5384B384A9A6000248CB048
:10477C001C609C809C71032001F038FA21460120BA
:10478C0001F04CFA0121042001F088F803F05AFCE6
:10479C000323014601222E482E4D00F04DFD03F05F
:1047AC0051FC4FF0FF3301461A462B4800F0CEFE69
:1047BC0003F048FC234601464FF40052284600F013
:1047CC0053FD264B2B6003F03DFC69220146244827
:1047DC0000F086F8CDE90044029403F0DDFA214C98
:1047EC000546694603A8FFF78AFF264603A906A8D3
:1047FC00FFF785FF1C4B46F8043B06A909A8FFF7F9
:10480C007EFF09AA1E21304602F06BFB09A8FFF7B8
:10481C0035FF06A8FFF732FF144B2360256203A86F
:10482C00FFF72CFF124B236003F0B6FA4FF416512E
:10483C0003F0A2FA01F0FAFF214602F0E4FA68460E
:10484C00FFF71CFF0CB070BD98E403200000FFFFC5
:10485C00C4E40320F0E40320DCE4032080880D0092
:10486C00A4E4032008E5032050880D00BC8C0D0047
:10487C0068880D00704710B52021044603F006FC33
:10488C00204610BD0EB410B58DB00FAA016852F8B9
:10489C00044B039200232020CDE90403CDE9004210
:1048AC00012004AA01F082F90DB0BDE8104003B05C
:1048BC0070470EB410B58DB00FAA016852F8044BB6
:1048CC00039200232020CDE90403CDE900423220DD
:1048DC0004AA01F06BF90DB0BDE8104003B07047AD
:1048EC0010B50272FF2242810022C0E9032242610C
:1048FC000276C261024A034C1060C0E9004110BD4F
:10490C0034E50320688A0D002DE9F8439DF82080DA
:10491C000446894616461F46B8F1000F02D040687F
:10492C0001F0AEFB217A606801F09CFB60680368C3
:10493C0049469B6898476068002101F09AFB054640
:10494C0000BB0123217A60683A4601F076FB87426E
:10495C00034609D13744BE421CD0606803685B69CA
:10496C00984706F8010BF6E70B490C484A46FFF747
:10497C00A0FFB8F1000F02D0606801F08AFB284656
:10498C00BDE8F8830346064904484A46FFF791FF01
:10499C000025EEE70125ECE7B8880D0030E5032093
:1049AC00DD880D0007B500930123FFF7ADFF03B0C1
:1049BC005DF804FB73B54389FF2B044610D0194EE8
:1049CC00194D00F083FFB0F57A7F09D2608903F0AE
:1049DC000DFB012804D031462846FFF7B1FBF0E768
:1049EC0001230DF1070228212046FFF7DBFF30B928
:1049FC000D480E49FFF7A4FB002002B070BD9DF8D6
:104A0C000730182BF4D101230DF107022921204680
:104A1C00FFF7C8FF0028EBD09DF80730052BE7D136
:104A2C00EBE700BF01890D0030E5032016890D006E
:104A3C002DE9F0419DF8188004460F4615461E4698
:104A4C00B8F1000F02D0406801F01AFB217A6068BF
:104A5C0001F008FB6068036839469B6898472E4450
:104A6C00B542606805D0036815F8011B9B68984730
:104A7C00F6E7012101F0FDFA034670B10849094837
:104A8C003A46FFF716FF0025B8F1000F02D0606818
:104A9C0001F0FFFA2846BDE8F0810125F4E700BFDC
:104AAC0023890D0030E503201FB58DF80F200093EE
:104ABC000DF10F020123FFF7BBFF05B05DF804FBFE
:104ACC00F8B50A460C4605461A491B48FFF738FB51
:104ADC00002CB8BFEC687CB9012322461B21284668
:104AEC00FFF7E2FF1549024606461348FFF7CAFED8
:104AFC00EC606C613046F8BD032C19DDA7101F2F3C
:104B0C00A8BF1F27BA0062F07C020123D2B21B217E
:104B1C002846FFF7C9FF3A460346094906460648A8
:104B2C00FFF7B0FE4FF4FA635F43EC606F61E1E7AF
:104B3C000127E7E748890D0030E5032052890D0075
:104B4C006E890D000B4607490246086848B1002BD8
:104B5C0008BFB2F5006F04D1C36813B10021FFF791
:104B6C00AFBF704734E503202DE9FF419DF8288045
:104B7C00054616461F46B8F1000F04D04068019157
:104B8C0001F07EFA0199019100230DF10F022846E4
:104B9C00FFF708FF044660B19DF80F3003EA0602E8
:104BAC003A43934205D0019900232846FFF77CFF36
:104BBC000446B8F1000F02D0686801F06AFA20468A
:104BCC0004B0BDE8F08113B514460DF10702FFF7F0
:104BDC00E9FE28B19DF807301C420CBF01200020D3
:104BEC0002B010BD13B514460DF10702FFF7DAFE43
:104BFC0028B19DF807301C4214BF0120002002B0E0
:104C0C0010BD07B5D2430093D2B20023FFF7ACFF1F
:104C1C0003B05DF804FB000037B501230DF107026A
:104C2C000F210446FFF7BEFE054638B91E491F4842
:104C3C00AD22FFF73EFE284603B030BD9DF807308D
:104C4C0013F0200F4FF001030BD02022E3610F2152
:104C5C002046FFF7D6FF164A16491448FFF770FA9C
:104C6C00E9E7082217212046FFF7BCFF18B1022301
:104C7C00114AE361F0E79DF807301A0709D50323C1
:104C8C00E361082201230F212046FFF7BAFF0B4AEC
:104C9C00E2E75B07CFD50422E26101230F21204616
:104CAC00FFF7AFFF064AD7E7C1890D0030E50320B7
:104CBC0092890D00E0890D009B890D00AB890D00D8
:104CCC00BB890D0007B500931346FF22FFF74CFF7D
:104CDC0003B05DF804FB2DE9F3479DF828A00546C9
:104CEC000C4691461F46BAF1000F02D0406801F005
:104CFC00C7F907B3202F3E4628BF20267F2C26D885
:104D0C003319802B01D9C4F18006012304223F21E1
:104D1C002846FFF776FF002364F07F0100934A4694
:104D2C003346C9B22846FFF7EFFD804628B134441C
:104D3C00BF1BB144DDE74FF00108BAF1000F02D000
:104D4C00686801F0A6F9404602B0BDE8F08701237F
:104D5C0004223F212846FFF7B5FFDCE72DE9F34796
:104D6C009DF828A005460C4691461F46BAF1000F47
:104D7C0002D0406801F084F907B31F2F3E4628BFCC
:104D8C001F267F2C26D83319802B01D9C4F180061D
:104D9C00012304223F212846FFF733FF002364F050
:104DAC007F0100934A463346C9B22846FFF740FEBE
:104DBC00804628B13444BF1BB144DDE74FF00108F5
:104DCC00BAF1000F02D0686801F063F9404602B0F6
:104DDC00BDE8F087012304223F212846FFF772FF2C
:104DEC00DCE7000030B585B00D68D1E904320395DD
:104DFC004D6802958D680195C9680091013304498D
:104E0C0002F26C72044602F079FD204605B030BD0A
:104E1C00F1890D0003110A2200F00F0002FB0300C0
:104E2C00704738B5044600781546FFF7F3FF086065
:104E3C006078FFF7EFFF4860A078FFF7EBFF886022
:104E4C00E078FFF7E7FFC8602079FFF7E3FF013850
:104E5C0008612DB9651D2878FFF7DCFF886138BD26
:104E6C006079FFF7D7FF6430A51D4861F3E70000B8
:104E7C0070B5012388B00D461A4610210446FFF781
:104E8C00A2FEF0B108230126204600960DEB03028A
:104E9C000021FFF739FD044698B1324629460DF141
:104EAC000900FFF7BEFF04A8FFF79CFF0848049A0F
:104EBC000849FFF745F904A802F07EFC204608B02B
:104ECC0070BD24220021284603F03AF90024F5E7AE
:104EDC0030E503200F8A0D0030B58BB00D4601A9CB
:104EEC00FFF7C6FF044620B101A800F08BFFC5E90F
:104EFC00000120460BB030BD10B5044688B011B18E
:104F0C00406801F07DF82046FFF754FD70B3204651
:104F1C00FFF782FE01231A4610212046FFF753FEAD
:104F2C00D8B102F02BFEC0B902A92046FFF7D4FF7E
:104F3C00DDE9020102F029FD0F4B10491B680093BB
:104F4C0004A8DDE9022302F0D7FD0D48049A0D49AF
:104F5C00FFF7F6F804A802F02FFC0B4A00230021FF
:104F6C004FF4006000F052FE08B010BD0749044831
:104F7C00FFF79FFCF1E700BF28E40320D4E50320F2
:104F8C0030E503201D8A0D00514B0D003A8A0D00AF
:104F9C00014B024A1A60704730E50320528A0D001B
:104FAC00704710B51421044603F070F8204610BD6C
:104FBC00F8B50E46017C074641F01801C0681D4645
:104FCC00144601F04FF8F868012D036888BF46F0CD
:104FDC0080069B68314698472544AC42F86805D05A
:104FEC00036814F8011B9B689847F6E701F045F835
:104FFC00B0FA80F04009F8BDF8B50F46017C0446C4
:10500C0041F01801C0681E46154601F02BF8E06807
:10501C00012E036888BF47F080079B683946984784
:10502C00E06801F02AF8C0B9217CE068324641F012
:10503C00180101F014F82E44AE4201D10120F8BD44
:10504C00E06803681B6998470028F7D0E06803689C
:10505C005B69984705F8010BEEE70020EFE70022AB
:10506C00027042708270C270027142718271C271A0
:10507C000272427282727047002241F00701017085
:10508C00027182704270C271427270475722027074
:10509C0040228270FF22C1714272704713B50368BF
:1050AC0001AADC680123A0479DF8040002B010BDE2
:1050BC0038B505460A240F212846FFF7EFFF3328A1
:1050CC004FF0010004D000F0A5FE013CF3D12046C6
:1050DC0038BDF7B50C4627210546FFF7DFFF00F07A
:1050EC000800002814BF012600261BD02B686A4636
:1050FC00DF68282106232846B8479DF801209DF833
:10510C00003043EA022323809DF803209DF80230EF
:10511C0043EA022363809DF805209DF8043043EA9E
:10512C000223A380304603B0F0BD08B53121FFF750
:10513C00B5FF034610F040000FD003F0BF00042869
:10514C000CD0022809D001280AD008280AD020281F
:10515C000AD0102814BF0020062008BD0120FCE74F
:10516C000320FAE70420F8E70520F6E713B50368F7
:10517C008DF804201C6901AA0123A04702B010BDC0
:10518C0070B503689B6804460D469847064630B9CF
:10519C0002F002FE274902F0A6FA304670BD2A78CA
:1051AC0020212046FFF7E2FF6A7821212046FFF7F5
:1051BC00DDFFAA7822212046FFF7D8FFEA782321C9
:1051CC002046FFF7D3FF2A7924212046FFF7CEFF94
:1051DC006A7925212046FFF7C9FFAB791BB126213F
:1051EC002046FFF75BFFAA7A2E212046FFF7BEFF71
:1051FC00AB785B06D1D5EA7932212046FFF7B6FFB2
:10520C002A7A33212046FFF7B1FF6368002B0ADBB3
:10521C006A7A227220463021FFF7A8FF31212046FE
:10522C00FFF73CFFB9E70022227230212046FFF73E
:10523C009DFFB2E7788A0D0010B54360002303721E
:10524C00024B0360C160027410BD00BF948A0D0054
:10525C00704710B51021044602F018FF204610BD0F
:10526C000368C9B29B68184730B5034DC0E90223E7
:10527C00C0E9005130BD00BFDC8A0D00406800F071
:10528C00BFBE10B50446006800F003FF204610BDF9
:10529C002DE9F0418AB004464068019000F0F0FE20
:1052AC001E22002102A8A76802F04AFF0026EFB1D7
:1052BC0023681E2FB84628BF4FF01E08DD6802AACF
:1052CC00434631462046A847054658B90A480B497B
:1052DC003246FEF735FF01A8FFF7D3FF28460AB088
:1052EC00BDE8F081A7EB08074644E0E701A8FFF70B
:1052FC00C8FF0125F2E700BF80E50320A88A0D0056
:10530C002DE9F7430446406801900D4616461F46AA
:10531C0000F0B6FEA7B1E168606841F0500100F002
:10532C00A5FE290A6068FFF79BFF29466068FFF716
:10533C0097FF6068002100F09CFE48B1002400E05B
:10534C00012401A8FFF79DFF204603B0BDE8F083C0
:10535C00202F217B6068B84628BF4FF0200801231E
:10536C00424641F0500100F068FE02F06BFE03680B
:10537C001B6998474045E1DB06EB080902F062FE29
:10538C0003685B69984706F8010B4E45F6D1454416
:10539C00A7EB0807BEE72DE9F74F044640680190DC
:1053AC000E4690461D4600F06BFE4FF00109B9F118
:1053BC00000F2AD04DB3E168606841F0500100F055
:1053CC0055FE310A6068FFF74BFF60683146FFF706
:1053DC0047FFA5F11E0A4746A6EB080B606817F8B5
:1053EC00011B0368013D9B68984755450BEB07066D
:1053FC00B84601D0002DF1D16068012100F039FED2
:10540C000028D7D04FF00009D1E701A8FFF739FFEA
:10541C00484603B0BDE8F08F2DE9F0438BB00E4643
:10542C0015468046406801901C4600F029FEAE42AD
:10543C0029D2264425448CB11E2C2746D8F800309E
:10544C0028BF1E27F61BD3F8089002AA3B4631460C
:10545C004046ED1BC84748B9002400E0012401A8D0
:10546C00FFF70FFF20460BB0BDE8F083D8F80030F3
:10547C0002AAD3F80C9029463B464046C847002860
:10548C00EAD0E41BD7E7E9D9002CE7D0D8F80030F4
:10549C001E2C274628BF1E27D3F8089002AA3B468D
:1054AC0031464046C8470028D6D0D8F8003002AA6A
:1054BC00D3F80C9029463B464046C8470028CBD031
:1054CC003E443D44E41BDFE7704708B58068002884
:1054DC0003DB002180B202F070FDBDE808400A2019
:1054EC0000F098BC08B58068002803DB012180B26D
:1054FC0002F063FDBDE808400A2000F08BBC10B53B
:10550C001C21044602F0C2FD204610BD13B50C460A
:10551C000DF1060100F094F9BDF80630236002B0DD
:10552C0010BD07B50DF1060100F079F9BDF80600C4
:10553C004EF6AC63C01A18BF4FF0FF3003B05DF8E5
:10554C0004FB08B500F018F908BD00002DE9F8437C
:10555C004FF05209C0E90012C0F80C908360054668
:10556C001C200F4616469846FEF78DFD044680B16A
:10557C000A4B80F81090C0E90037002E00F11003A0
:10558C00C0E902684761836103DB0121B0B202F01C
:10559C0003FD2C612846BDE8F88300BFF88A0D0096
:1055AC0007B50DF10601006900F039F9BDF80600E8
:1055BC004EF6CC23C31A5842584103B05DF804FB95
:1055CC0010B50446FFF7ECFF30B1206900F0D4F8B9
:1055DC00003818BF012010BD0120FCE7006900F065
:1055EC004FB8006900F051B8006900F053B807B526
:1055FC000DF10701006900F0A2F89DF807000038D2
:10560C0018BF012003B05DF804FB07B50DF10601CE
:10561C00006900F015F9BDF8060003B05DF804FB55
:10562C00F7B5044615464068BDF8207049081E467B
:10563C006DBA00F017FD6068ADF8045003680222E3
:10564C00DB6801A998470025AF42606805DD036857
:10565C00715D9B6898470135F6E7012100F009FD63
:10566C00002003B0F0BD1FB58DF80F300123097871
:10567C0000930DF10F03FFF7D3FF05B05DF804FBAA
:10568C00816901238622FFF7EEBF816940238722BF
:10569C00FFF7E9BF816900238722FFF7E4BF2DE9FB
:1056AC00F34104461D464F08052692FA92F86068AD
:1056BC00394600F0D7FC6068ADF80480036801A996
:1056CC00DB68022298476068002100F0D2FC18B118
:1056DC00013E16F0FF06EAD19DF82020606839469D
:1056EC0000F0BDFC013D606803681B69984730B150
:1056FC00606803685B69984705F8010FF3E702B02F
:10570C00BDE8F08113B5012409780094FFF7C7FFB9
:10571C00003818BF0120404202B010BD13B5302232
:10572C000C460DF107038169FFF7ECFF9DF807307C
:10573C00C3F3001383F00103237002B010BD37B51F
:10574C0005460C460DF10701FFF7E8FFA9690DF1BD
:10575C00060331222846FFF7D5FF50B99DF80630D5
:10576C009DF8072003F001039A4206BF0123237022
:10577C00207003B030BD000073B500231C4E8DF8B3
:10578C00073004462D25AAB216F8013BA169204624
:10579C000135FFF768FF882DF5D12046FFF775FF1F
:1057AC0098259DF8073063B90DF107012046013D9E
:1057BC00FFF7C5FF15F0FF0517D0012000F02AFBFD
:1057CC00EFE72046FFF75CFF2046FFF763FFA16978
:1057DC00092308222046FFF746FFA16900230B226C
:1057EC002046FFF740FF02B070BD6FF00600FAE7ED
:1057FC00148B0D001FB51C460023ADF80C30022392
:10580C000978009303ABFFF74AFF30B99DF80C20E1
:10581C009DF80D3003EB0223238004B010BD13B5AB
:10582C0000230C46ADF8063081690DF1060340F2F9
:10583C000F12FFF7DFFFBDF80630238002B010BD5A
:10584C0013B596220C460DF106038169FFF7D2FFC2
:10585C00BDF80630238002B010BD000008B5024B25
:10586C001B685B6C019308BD4802030008B5024B32
:10587C001B689B6C019308BD4802030008B5024BE2
:10588C001B68DB6C019308BD4802030008B5024B92
:10589C001B685B6D019308BD4802030008B5024B01
:1058AC001B685B6E019308BD3402030008B5024B04
:1058BC001B685B68019308BD1802030008B5024B16
:1058CC001B68DB68019308BD1802030008B5024B86
:1058DC001B685B69019308BD1802030008B5024BF5
:1058EC001B689B6D019308BD1802030008B5024BA1
:1058FC001B689B6E019308BD1802030008B5024B90
:10590C001B689B68019308BD2C02030008B5024B71
:10591C001B68DB68019308BD2C02030008B5024B21
:10592C001B681B69019308BD2C02030008B5024BD0
:10593C001B685B69019308BD2C02030008B5024B80
:10594C001B689B69019308BD2C02030008B5024B30
:10595C001B68DB69019308BD2C02030008B5024BE0
:10596C001B68DB68019308BD2802030008B5024BD5
:10597C001B689B69019308BD2802030008B5024B04
:10598C001B68DB69019308BD2802030008B5024BB4
:10599C001B681B6A019308BD2802030008B5024B63
:1059AC001B685B6A019308BD2802030008B5024B13
:1059BC001B689B6A019308BD2802030008B5024BC3
:1059CC001B68DB6A019308BD2802030008B5024B73
:1059DC001B681B6B019308BD2802030008B5024B22
:1059EC001B685B6B019308BD2802030008B5024BD2
:1059FC001B681B6C019308BD2802030008B5024B01
:105A0C001B689B6C019308BD2802030008B5024B70
:105A1C001B68DB6C019308BD2802030008B5024B20
:105A2C001B681B6D019308BD2802030008B5024BCF
:105A3C001B685B69019308BD6402030008B5024B47
:105A4C001B689B68019308BD6802030008B5024BF4
:105A5C001B68DB68019308BD6802030008B5024BA4
:105A6C001B68DB69019308BD3002030008B5024BCB
:105A7C001B681B6A019308BD3002030008B5024B7A
:105A8C001B681B68019308BD3C02030008B5024B60
:105A9C001B689B68019308BD3C02030008B5024BD0
:105AAC001B68DB68019308BD3C02030008B5024B80
:105ABC001B681B69019308BD3C02030008B5024B2F
:105ACC001B685B69019308BD3C02030008B5024BDF
:105ADC001B689B69019308BD3C02030008B5024B8F
:105AEC001B68DB69019308BD3C02030008B5024B3F
:105AFC001B681B6A019308BD3C02030008B5024BEE
:105B0C001B689B6A019308BD3C02030008B5024B5D
:105B1C001B68DB6A019308BD3C02030008B5024B0D
:105B2C001B681B68019308BD4C02030008B5024BAF
:105B3C001B685B68019308BD4C02030008B5024B5F
:105B4C001B689B68019308BD4C02030008B5024B0F
:105B5C001B681B69019308BD4C02030008B5024B7E
:105B6C001B685B69019308BD4C02030008B5024B2E
:105B7C001B689B69019308BD4C02030008B5024BDE
:105B8C001B68DB69019308BD4C02030008B5024B8E
:105B9C001B681B6A019308BD4C02030008B5024B3D
:105BAC001B685B6B019308BD6002030008B5024BD8
:105BBC001B685B6D019308BD6002030008B5024BC6
:105BCC001B68DB6E019308BD6002030008B5024B35
:105BDC001B681B6F019308BD6002030008B5024BE4
:105BEC001B681B68019308BD2002030008B5024B1B
:105BFC001B685B68019308BD2002030008B5024BCB
:105C0C001B685B69019308BD2002030008B5024BB9
:105C1C001B681B6A019308BD2002030008B5024BE8
:105C2C001B68DB6A019308BD2002030008B5024B18
:105C3C001B689B6D019308BD2002030008B5024B45
:105C4C001B68DB6D019308BD2002030008B5034BF4
:105C5C001B68D3F88830019308BD000020020300B4
:105C6C0008B5034B1B68D3F89430019308BD0000B2
:105C7C002002030008B5024B1B689B68019308BD0A
:105C8C004402030008B5024B1B685B69019308BD15
:105C9C004402030008B5024B1B681B6B019308BD43
:105CAC004402030008B5024B1B68DB6B019308BD73
:105CBC004402030008B5024B1B685B68019308BDE6
:105CCC004002030008B5024B1B689B68019308BD9A
:105CDC004002030008B5024B1B68DB68019308BD4A
:105CEC004002030008B5024B1B681B69019308BDF9
:105CFC004002030008B5024B1B685B69019308BDA9
:105D0C004002030008B5024B1B689B69019308BD58
:105D1C004002030008B5024B1B68DB69019308BD08
:105D2C004002030008B5024B1B681B6A019308BDB7
:105D3C004002030008B5024B1B681B6B019308BDA6
:105D4C004002030008B5024B1B685B6B019308BD56
:105D5C004002030008B5024B1B681B6C019308BD85
:105D6C004002030008B5024B1B685B6C019308BD35
:105D7C004002030008B5024B1B681B68019308BD69
:105D8C001C02030008B5024B1B685B68019308BD3D
:105D9C001C02030008B5024B1B689B68019308BDED
:105DAC001C02030008B5024B1B681B69019308BD5C
:105DBC001C02030008B5024B1B68DB69019308BD8C
:105DCC001C02030008B5024B1B685B6A019308BDFB
:105DDC001C02030008B5024B1B685B6C019308BDE9
:105DEC001C02030008B5024B1B689B6C019308BD99
:105DFC001C02030008B5024B1B68DB6C019308BD49
:105E0C001C02030008B5024B1B685B6D019308BDB7
:105E1C001C0203000021FFF7F1BE10B50368044615
:105E2C009B689847A368013BA3602BB92368204665
:105E3C00DB68BDE81040184710BD0B68036013B158
:105E4C005A6801325A60704710B50446006828B190
:105E5C004368013B43600BB9FFF7DFFF204610BDE1
:105E6C00024800230360FFF7F9BC00BF38E50320AC
:105E7C00002240681146FFF735BF002240681146EA
:105E8C00FFF750BF002240681146FFF75BBF406828
:105E9C000022FFF74FBF4068002281F00101FFF79D
:105EAC0039BF002340681A461946FFF72BBF002361
:105EBC0040681A461946FFF71DBF0022406811467C
:105ECC00FFF700BF406800220221FFF703BF002349
:105EDC0040681A46FFF7EEBE084B10B52824224640
:105EEC001846002102F02CF9054B04804FF0FF32CC
:105EFC00426004225A60034A1A6010BD44E5032034
:105F0C003CE50320788B0D00002240681146FFF71A
:105F1C0009BF002240681146FFF714BF40680022F9
:105F2C00FFF708BF4068002281F00101FFF7F2BEC5
:105F3C00002340681A461946FFF7E4BE0023406868
:105F4C001A461946FFF7D6BE002240681146FFF7E5
:105F5C00C9BE002240681146FFF7B4BE406800225B
:105F6C000221FFF7B7BE002340681A46FFF7A2BE16
:105F7C00024B03225A60024A1A6070476CE50320F8
:105F8C00B48B0D007047F8B5064615460C468F18B5
:105F9C00BC4206D0336814F8011B9B683046984706
:105FAC00F6E72846F8BD007C0022FFF7EFBC007C2A
:105FBC000021FFF7F3BC007C0021FFF7F7BC007C4D
:105FCC000021FFF7FBBC007C0021FFF7FFBC10B5E4
:105FDC001421044602F05AF8204610BD10B54FF4B7
:105FEC007A73044608460021C4E90113034B23606D
:105FFC0020741146FFF7FAFC204610BDF08B0D0003
:10600C000023007C1A461946FFF7A8BC7FB5002276
:10601C001423CDE90122ADF804300B788DF808304B
:10602C004B680393CB680493007C0B7A059301A90E
:10603C00FFF7F4FC07B05DF804FB1FB5003B8DF8CF
:10604C0000104FF06401039118BF012369460192BF
:10605C008DF80830FFF7DAFF05B05DF804FB01237B
:10606C00FFF7EBBF007C0022FFF780BCC9B2FFF743
:10607C00F9BF007C0022FFF781BC0121FFF7F9BFBB
:10608C0008B50021007CFFF7B9FCB0FA80F040099C
:10609C0008BD08B50021007CFFF7B8FCB0FA80F011
:1060AC00400908BD004700002DE9FF4100241D46B2
:1060BC000F4690460646FFF749FCA5424FF00403F5
:1060CC00ADF80D408DF80C308DF80F40A2BF9DF847
:1060DC0028308DF80E3003AC0749009443463A46FD
:1060EC003046A8BF8DF80D50FFF728FCB0FA80F0B1
:1060FC00400904B0BDE8F081B1600D00704710B5E7
:10610C001821044601F0C2FF204610BDF0B5037DF6
:10611C00062B8DB00E4600F104074FF0000412D090
:10612C0000F1080515F8011D0A22304601F0E5FAC8
:10613C00AF42044419D0002CF4D02E21304601F08B
:10614C00C3FA0444EEE72F236A4639460A208DF839
:10615C000040FFF76BFC684602F047F833680246D4
:10616C00DB68694630469847044620460DB0F0BDC2
:10617C0010B5054B0446112240F8043B002101F0F8
:10618C00DFFF204610BD00BF188C0D000346074AE8
:10619C0010B543F8042B01F1100251F8044B43F8ED
:1061AC00044B9142F9D10A781A7010BD188C0D006D
:1061BC0010B59DF8084044EA032343EA024242EA40
:1061CC00016104234160037510BD13B5CB780093B6
:1061DC008B784A780978FFF7EBFF02B010BD00F11D
:1061EC001003012213F8101C0129184608D153F88A
:1061FC00041C02EB4102013A03F11003F2D1704787
:10620C00022904BF53F8041C5218F4E70EB4F0B57D
:10621C0088B000AF07F13405102155F8042B7A60D3
:10622C0004462B467818FD60FFF7CCFD0F287A68E2
:10623C001AD900F1080323F007036E46ADEB030DEA
:10624C00411C2B466846FD60FFF7BCFD021E04DDB9
:10625C00236869469B6820469847B5462037BD465B
:10626C00BDE8F04003B070470028F7D02368024621
:10627C009B6807F1100120469847EFE710B50368BB
:10628C0004469B689847A368013BA3602BB923681D
:10629C002046DB68BDE81040184710BD07B5036801
:1062AC008DF807109B6801220DF10701984703B088
:1062BC005DF804FB38B50B6803604D6843689D427C
:1062CC0004460CD015B16B6801336B60606828B163
:1062DC004368013B43600BB9FFF7D0FF6560204674
:1062EC0038BD0B461146002210B5C0E90022044609
:1062FC0083600BB9204610BDFFF7DCFFFAE783681B
:10630C00EBB11A78032A1AD8DFE802F00417021B43
:10631C000520704702685B685268D05C2D2812D04B
:10632C00A0F13003092B0ED974280ED066280CD09E
:10633C00A0F16E0358425841704706207047002068
:10634C00704704207047032070470220704710B537
:10635C000446FFF7D4FF02280ED0C31EDBB2012B7C
:10636C0014D82268A36850685B68BDE810400A2204
:10637C000021184402F008B82268A36852685B68D0
:10638C00D05CA0F174035842584110BD0020FCE7CA
:10639C0038B50023C0E9003304460E48C4E90203B3
:1063AC00A9B10B78032B06D08BB9136858684B68CE
:1063BC00C35C6E2B07D013684D6858688B682844F3
:1063CC005B1BA060E36011462046FFF773FF20467D
:1063DC0038BD00BF818C0D0038B500250B46C0E9D7
:1063EC000055C0E90255C0E90455044611464BB1AD
:1063FC001A78012A06D103F11002DB68826043612E
:10640C00FFF758FF204638BD10B54369044663B109
:10641C008068E060013B1030A0602061636113B1C3
:10642C00FFF7DDFEA060012000E0184610BD10B59E
:10643C007D210446FFF732FF01232371204610BD56
:10644C0008B50379012B02D0022B04D008BD2C21F6
:10645C00FFF724FFFAE73A21FAE710B50446FFF7F5
:10646C00EFFF20467B21FFF719FF00232371204605
:10647C0010BD000013B504460191FFF7E1FF23683E
:10648C00019ADB6803492046984701232046237173
:10649C0002B010BD2D870D0013B504460191FFF716
:1064AC00CFFF2368019ADB680349204698470123F4
:1064BC002046237102B010BDCF8A0D002DE9F041AA
:1064CC000D4617462221DFF8A08004462F44FFF723
:1064DC00E5FE2946BD422A4638D015F8016B222E1E
:1064EC0003D05C2E01D01F2EF4D82368521A9B685F
:1064FC00204698475C212046FFF7D0FE0D2E0AD887
:10650C00072E1CD9A6F10803052B18D8DFE803F0D9
:10651C000D0F11171315222E01D05C2E0FD1314601
:10652C002046FFF7BBFE2946D4E76221F8E7742129
:10653C00F6E76E21F4E76621F2E77221F0E72368B3
:10654C003246DB68414620469847ECE78D4204D042
:10655C0023686A1A9B682046984722212046FFF739
:10656C009DFEBDE8F08100BF248C0D0013B50446E0
:10657C00CDE90021FFF764FF2046DDE90021FFF79C
:10658C009DFF02232046237102B010BD13B50446B3
:10659C00CDE90021FFF754FF2046DDE90021FFF78C
:1065AC008DFF01232046237102B010BD8068036863
:1065BC00DB6818477047084611B10B685B681847D1
:1065CC007047704770477047704738B504460D46A2
:1065DC0000682E2101F0EDFD2368C31A2B6023B156
:1065EC00037803B1013023682060184638BD10B51C
:1065FC000C21044601F04AFD204610BD10B50421C3
:10660C00044601F043FD204610BD10B5042104469C
:10661C0001F03CFD204610BD08B501F0D4FDB0FAE8
:10662C0080F0400908BD704710B50C4601F0B4FB72
:10663C00844210D001F028FB844205D101F024FBE8
:10664C00BDE8104001F01DBB2CB1236820465B68EF
:10665C00BDE81040184710BD13B50446084601911B
:10666C0001F0C3FD01990246204602B0BDE810407E
:10667C00FFF78CBF13B504460846019101F0B5FD38
:10668C0023680199DB680246204602B0BDE8104041
:10669C00184707B503688DF80710DB6801220DF168
:1066AC000701984703B05DF804FB0EB403B503ABC8
:1066BC00002153F8042B006A019301F03CF802B05E
:1066CC005DF804EB03B070472DE9F74FD0E9009566
:1066DC004FF0140808FB05F50093AB10184D174646
:1066EC005D434C46002D23DD6E1008FB06F004EBD9
:1066FC00000A3A46BAF804B0205801915F4528BF09
:10670C005A4601F08DFD0199012378B95F4503D1FB
:10671C00009A13703546E5E78CBF01200020002855
:10672C00F8D0AE1B0AF11404013EF3E7C00FF6E7F4
:10673C00A4EB09040248A410604303B0BDE8F08F39
:10674C00CDCCCCCC7FB50369067E01910BB301B3E4
:10675C00002500F10C04039503A901A8FFF735FFF0
:10676C000146B0B10DF10B03039A8DF80B50204686
:10677C00FFF7AAFF9DF80B305BB12468142303FBD1
:10678C00004000F10804B0F90630002BA8BFDEB2BF
:10679C00E2E7304604B070BD10B5094C2378BFF366
:1067AC005B8FDB0709D42046FDF77EFC28B1204621
:1067BC00FDF77FFC034801F095FC034810BD00BFBA
:1067CC0078E50320CF650D0020E4032010B5094CBB
:1067DC002378BFF35B8FDB0709D42046FDF764FCFD
:1067EC0028B12046FDF765FC034801F07BFC03480B
:1067FC0010BD00BF7CE5032033660D0024E40320AC
:10680C0038B500250446C0E90055C0E9045585603B
:10681C00856140F8245FFFF721F8FFF7BDFFE061C9
:10682C00FFF7D4FF25732062204638BD10B50A4C03
:10683C002378BFF35B8FDB070CD42046FDF734FCC9
:10684C0040B10648FFF7DCFF2046FDF732FC044858
:10685C0001F048FC014810BD74E5032084E50320D9
:10686C00196D0D00024A034903480023FFF7AEB926
:10687C00A16B0D002D6B0D00AD6A0D0000231A46A7
:10688C0019461846FFF7A2B937B50D6951F8043B04
:10689C000093044601A8FFF7D0FA6A462946204621
:1068AC00FFF71FFD01A8FFF7CFFA204603B030BD5C
:1068BC0037B58D6851F8043B0093044601A8FFF7E7
:1068CC00BCFA6A4629462046FFF786FD01A8FFF769
:1068DC00BBFA204603B030BD37B5CD6851F8043B48
:1068EC000093044601A8FFF7A8FA6A4629462046F9
:1068FC00FFF74EFD01A8FFF7A7FA204603B030BD05
:10690C0070B58AB00D46014604A8FFF7D1FF144EAE
:10691C0004A8FFF779FDE8B104A96846FFF7DCFF8E
:10692C0002983146FFF778FE044610B12C1E18BFB2
:10693C00012401A8FFF788FA002CE9D004A96846C5
:10694C00FFF7A2FF6846FFF702FD286001A8FFF7DA
:10695C007BFADDE705A8FFF777FA0AB070BD00BF38
:10696C002A8C0D0037B50C4620461249154601F00D
:10697C002AFC48B901F010FA4FF4165101F0FCF959
:10698C0001F00AFA03B030BD0B49204601F01BFCA4
:10699C0070B94FF4165301A928460193FFF7B0FFC5
:1069AC0001F072F9019901F069F901F06DF9E9E76B
:1069BC000020E7E72F8C0D00368C0D0070B5D0E968
:1069CC0000531426044606FB0356AE4205D005F1CF
:1069DC000800FFF7F3FF1435F7E72068FFF7D2F94B
:1069EC00204670BD70B5D0E90053044605EB031684
:1069FC00AE4204D0284600F0DFFE1035F8E72068E0
:106A0C00FFF7C0F9204670BD10B504460C30FFF7F7
:106A1C00D5FF2046FFF7E6FF204610BD10B5044B0E
:106A2C00044640F8043BFFF7EFFF204610BD00BFC3
:106A3C0050880D0010B50446FFF7F0FF20462421C6
:106A4C0001F024FB204610BD10B5034B0360044637
:106A5C00FFF7E4FF204610BDD48C0D0010B50446A2
:106A6C00FFF7F2FF2046242101F010FB204610BD59
:106A7C000022C0E9002210B582600C6804604C68EA
:106A8C0044608C680A604A6084608A6010BD10B5EE
:106A9C00036804461868FEF7F9FE204610BD000096
:106AAC002DE9F04F87B0804603931C4B5B68C3F312
:106ABC000803894616466BB9FFF7B8FE044600F189
:106ACC002403406A0593FEF7D9FE237B2BB105A85E
:106ADC00FFF7DDFF07B0BDE8F08F01232373D4E986
:106AEC0000535FFA89F905EB830AAA4512D055F8D1
:106AFC00047B3146381DFFF725FE8145F5D33B68F5
:106B0C00039A0092D3F808B04A46334641463846B9
:106B1C00D847EAE700232373D9E700BF00ED00E074
:106B2C002DE9F74F9B461A4B5B68C3F3080380466D
:106B3C00894616466BB9FFF779FE044600F124032B
:106B4C00406A0193FEF79AFE237B2BB101A8FFF755
:106B5C009EFF03B0BDE8F08F01232373D4E90053EB
:106B6C00F6B205EB830A55450ED055F8047B594611
:106B7C00381DFFF7E7FD8642F5D33B684A46DB68D4
:106B8C00414638469847EEE700232373DEE700BF03
:106B9C0000ED00E02DE9F341164B5B68C3F30803ED
:106BAC0005460F461BBBFFF741FE00F124030446CC
:106BBC00406A0193FEF762FED4E90063462406EBBB
:106BCC008308B04509D101A8FFF761FFA542B4BF06
:106BDC000020012002B0BDE8F08156F8040B3946C4
:106BEC000430FFF7AFFD8442A8BF0446E9E700205C
:106BFC00F0E700BF00ED00E070B50446D0E90002FC
:106C0C000B4600EB8202824207D001461D6851F808
:106C1C00046BAE4203D00846F5E7002070BD521A53
:106C2C0001F074FA6368013B63600120F6E71FB55D
:106C3C0000F124030446406A01910393FEF71EFE03
:106C4C0001A92046FFF7D8FF18B163680BB9FFF70D
:106C5C0015FE03A8FFF71BFF04B010BD70B5D0E9FB
:106C6C0004561823044603FB0656AE4215D005F114
:106C7C0010012046FFF7C0FF63680BB9FFF7FEFD5C
:106C8C00E06929690368DB689847696919B1206A6A
:106C9C000368DB6898471835E7E7D4E904531826EE
:106CAC0006FB0356AE4204D0284600F085FD18358D
:106CBC00F8E70023636170BD73B50446FFF7DEFD92
:106CCC0004F12403606A0193FEF7D8FD2046FFF718
:106CDC00C5FF01A8FFF7DBFE606A08B1FEF7C6FD31
:106CEC00D4E90453182606FB0356AE4204D02846BA
:106CFC0000F062FD1835F8E72069FFF743F82068CB
:106D0C00FFF740F8204602B070BD00000148FFF7C5
:106D1C00D3BF00BF84E503208842F8B506460C4675
:106D2C00154627D9904226D2A2F114056C1AA1F16E
:106D3C00140704440026AF423DD0A4B12B68236055
:106D4C00AB88A380B5F90630E380C4E902662661FE
:106D5C00AB68A360AE60E368EA68E260EB6023694D
:106D6C002A6922612B6105F10800FFF727FE143D0B
:106D7C00143CE0E71FD00027AC421CD0A6B123681E
:106D8C003360A388B380B4F90630F380C6E9027788
:106D9C003761A368B360A760F368E268F260E360F0
:106DAC00336922693261236104F10800FFF706FEA2
:106DBC0014341436E0E7F8BDF8B5D0E901539D4220
:106DCC0004460E4617460DDB0135002D006804DD28
:106DDC00A900FEF7DFFF18B9F8BDFEF7D3FF0020BE
:106DEC002060A5602568626805EB86019200A2EB25
:106DFC008602081D01F08AF945F826706368013394
:106E0C0063600120E8E737B500F124030446406ACB
:106E1C0001930D46FEF732FDD4E9003103EB8100FE
:106E2C0083421A460BD01268AA4203F10403F7D12D
:106E3C0001A8FFF72CFE0025284603B030BD2A46DA
:106E4C002046FFF7B9FF05460028F1D06368012BF7
:106E5C0001D1FFF707FD01A8FFF719FEECE7884207
:106E6C00F8B504460D46164614D9904213D2A2F139
:106E7C001006751AA1F110072C44B74218D01CB19A
:106E8C003146204600F014FD304600F095FC103ED3
:106E9C00103CF2E70CD0B5420AD01CB12946204672
:106EAC0000F006FD284600F087FC10351034F2E7A0
:106EBC00F8BD70B50E1E054611DD3001FEF75AFF08
:106ECC00044658B1D5E9001201EB0212FFF7C7FFD7
:106EDC002868FEF757FF2C60AE60012070BD0024BF
:106EEC00F6E72DE9F04F914697B000230391D9F8BE
:106EFC0004100C9346229942C0E90033C0E90233D6
:106F0C00C0E90433CDE90A330446027623DCD9E91F
:106F1C000057142303FB0757AF423BD029460DA85B
:106F2C0000F0C6FC0DA911A80B9E00F0C1FCDDE918
:106F3C000B1399421BDA0A9B0B9A03EB061603EB15
:106F4C000212314606F11000FFF789FFEEB90B9BD8
:106F5C0001330B9311E00AA8FFF7ABFF0028D6D141
:106F6C000AA8FFF73FFD204617B0BDE8F08F0131AE
:106F7C000AA8FFF79EFF0028DDD111A800F01CFC29
:106F8C000DA800F019FC1435C6E711A9304600F025
:106F9C008FFCDCE70026CDE90D660F9637464FF0E7
:106FAC00140ADDE90A239E4280F297803301D358FC
:106FBC0008930BB90136F4E70AFB06F30997029321
:106FCC000DAD09A908A8FFF700FB83460028F1D0F6
:106FDC000146099A8DF81F700DF11F032846FFF723
:106FEC0073FB9DF81F800190B8F1000F66D1BDF8BE
:106FFC002430ADF84830CDE913884FF6FF73CDF847
:10700C0044B0ADF84A30CDF85480D5E90132934202
:10701C001ADB03F1010BBBF1000F4ADD0AFB0BF08D
:10702C00FEF7A8FE0490002845D0D5E900120AFB13
:10703C000212FFF771FE049B28680493FEF7A2FE70
:10704C00049B2B60C5F808B0019BD5F800B06A68AA
:10705C000AFB03F30BEB030101F114000AFB02B270
:10706C0004910593FFF758FE0499A9B1059B119A59
:10707C004BF80320BDF848308B80BDF94A30CB80EB
:10708C00C1E902770F61139B8B60149B1397CB6044
:10709C00159B14970B6115976B6801336B6013A8E4
:1070AC00FFF78CFCB8F1000F08D00DA8FFF786FC99
:1070BC0056E74346C0E74FF00108F0E7019B2D6807
:1070CC000AFB0355089B1B782BB9D9F80030029AA0
:1070DC0013441B7CEB80083573E7216822606268DF
:1070EC006360A3680B920C9A0C93E368A2600D9AF0
:1070FC000D932369E2600E9A0E93636922610F9AD5
:10710C000F93039B0A9162612376CEE77FB5054608
:10711C00094B45F8043B04460E4601A81146FDF701
:10712C00EEFA01AA31462846FFF7DBFE01A8FDF76F
:10713C00A5FA204604B070BD50880D00F0B50F467E
:10714C0087B026490C9C384616461D4601F03BF884
:10715C0000BBE4B129466846FFF78AFC204924208D
:10716C0000F096FF054670B1694603A8FDF7C7FA13
:10717C0003AA31462846FFF7C9FF03A8FDF77EFA9C
:10718C00184B2C622B606846FDF778FA2C4620468B
:10719C0007B0F0BD1449384601F015F8E0B9002CE1
:1071AC00F5D029466846FFF763FC0D49242000F012
:1071BC006FFF05460028E6D0694603A8FDF79FFA45
:1071CC0003AA31462846FFF7A1FF03A8FDF756FA9C
:1071DC00064B2B602C62D6E70024D8E73E8C0D00C2
:1071EC00DC8D0D00D48C0D00428C0D00BC8C0D0080
:1071FC00014B024A1A60704780E50320538C0D0046
:10720C002DE9F047089DD0F8209004460E4617460D
:10721C00984600F0C1FD81454CD02B79190704D557
:10722C006A6954492046FFF740FAB8F1000F0DD0B7
:10723C005B212046FFF72DFA41462046FFF71AFA4C
:10724C0023684D49DB680222204698472B79DA07E0
:10725C0023D5D5F808802F21404601F006F808B157
:10726C0000F1010841462046FFF704FA2B799B07F1
:10727C0008D53A212046FFF70CFAEA683F49204628
:10728C00FFF713FA2A79236812F0040FDB6814BF96
:10729C003B493C490222204698472B7958071DD57B
:1072AC0029690B461A4613F8010B60B1202808D146
:1072BC001946F7E7344800F066F90028ADD0BDE870
:1072CC00F0872828EED12368521ADB6820469847AD
:1072DC0023682E49DB680422204698470021384653
:1072EC00FEF76CFC01462046FFF7C4F923682549DC
:1072FC00DB680222204698471EB131462046FFF734
:10730C00B9F92B7913F0300F2CD023682049DB68A6
:10731C000222204698472B79D9060AD523681D49A5
:10732C00DB68072220469847AA691B492046FFF7CD
:10733C00BCF92B799A0611D5DB0605D523681049C3
:10734C00DB6802222046984723681449DB682046F4
:10735C000A229847E9692046FFF78CF95D212046FF
:10736C00FFF797F923680E49DB6820460222BDE837
:10737C00F0471847578C0D005E8C0D002D870D00C3
:10738C00618C0D00668C0D00ACE50320648C0D0047
:10739C00698C0D006C8C0D00EE840D00748C0D004E
:1073AC007F8C0D002DE9F04385B0D0F820900C9C1B
:1073BC0005460F4690461E4600F0EEFC814505D171
:1073CC00494800F0E0F8002840F08A802B6A474AD0
:1073DC0001924FF0000901A803938DF80890FFF774
:1073EC003CF849464046FEF7E9FB414980460122FC
:1073FC0001A8FFF7BBF84146FFF72EF93FB13D4915
:10740C00012201A8FFF7B2F83946FFF725F93EB182
:10741C003949012201A8FFF7A9F83146FFF71CF9F9
:10742C002379DF070ED5A6682F21304600F01DFF0B
:10743C0000B1461C3149012201A8FFF797F83146EB
:10744C00FFF70AF923799E0707D52D49022201A8D7
:10745C00FFF78CF8E168FFF70DF82379580714D57E
:10746C00266933461F4613F8012B2AB1202A01D175
:10747C001E46F7E7282AF5D12249022201A8FFF778
:10748C0075F8BA1B3146FFF781F82379190707D530
:10749C001D49012201A8FFF769F86169FEF7FCFF9D
:1074AC002379DA0608D5042218490DEB0200FFF700
:1074BC005DF8A169FEF7DEFF23799B0607D5144919
:1074CC00062201A8FFF752F8E169FFF7C5F801A8F9
:1074DC00FEF7ADFF286A0F4903680222DB68984764
:1074EC0005B0BDE8F08300BFACE50320A48C0D0013
:1074FC00348C0D00828C0D00848C0D00868C0D005C
:10750C00888C0D008B8C0D0077860D008E8C0D00F9
:10751C00938C0D007F8C0D00002340681A46FEF7FB
:10752C00C9BB406800220221FEF7D4BB0022406890
:10753C001146FEF7C7BB002240681146FEF7D2BBCE
:10754C00002340681A461946FEF7D4BB0023406856
:10755C001A461946FEF7D6BB40680021FEF7FABB67
:10756C0040680021FEF7FEBB4068002281F001015B
:10757C00FEF7D0BB40680022FEF7DCBB002240685F
:10758C001146FEF7DFBB002240681146FEF7CABB6E
:10759C002DE9F043002495B016460D460746FEF73C
:1075AC00E7FD214618220EA8009400F0C9FD4023E7
:1075BC00CDE90C3421466B460CAA3046FEF746FA50
:1075CC000446002846D1024601216868FEF78AFB72
:1075DC000221804622466868FEF784FB009E8146A5
:1075EC002146002E36D0002934D17368022B03D0EB
:1075FC000A2B0BD0F669F4E7B8F1000F04D07169CF
:10760C0038460431FEF7E1FD4146F3E7B9F1000FCE
:10761C0001D14946EEE77469102201A800F090FDF3
:10762C0006238DF8143001AD04F1080318341868E2
:10763C0059682A4603C20833A3421546F7D101A95B
:10764C0006A807ADFEF7A2FD0FCD3C1D0FC42B689D
:10765C002370DEE70098FEF7F1F9384615B0BDE867
:10766C00F0830000024B034A1A6000225A607047F4
:10767C00ACE503201C8D0D00F8B506460D468F18A1
:10768C000024BD420CD0336815F8011B9B683046B2
:10769C009847031E01DB1C44F3E7002C08BF1C4673
:1076AC002046F8BD13B50446084659B1019100F0C7
:1076BC009CFD23680199DB680246204602B0BDE8B8
:1076CC001040184702B010BD03689B68184738B5C6
:1076DC000D210546FFF7F8FF0A2104462846FFF75F
:1076EC00F3FF204438BD38B50546FFF7DBFF0446F1
:1076FC002846FFF7ECFF204438BD30B58BB0002393
:10770C008DF82430012A98BF0A2209AC0D46B1FB32
:10771C00F2F101FB125303F0FF03092B94BF30333A
:10772C003733DBB2AA4204F8013DEFD92146FFF70B
:10773C00B9FF0BB030BD2DE9F04186B000AF054666
:10774C000E46381D142114463B60FEF73BFB1328F4
:10775C000ED8391D2846FFF7A5FF04461EB1284652
:10776C00FFF7B5FF044420461837BD46BDE8F0814D
:10777C0000F1080323F00703E846ADEB030D2246A6
:10778C00411C3B686846FEF71DFB69462846FFF71F
:10779C0089FF0446C546E1E7014B00229A60704719
:1077AC00B4E5032010B5044608462170FEF756F9DF
:1077BC0000236360204610BD10B504460068FEF738
:1077CC00E1FA204610BD10B50446006808B1FEF77A
:1077DC00D9FA0023C4E90133236010BD38B504463F
:1077EC000D4600680131FEF7D5FA10B1C4E9000569
:1077FC00012038BD10B50368044623B143688B42A1
:10780C0001D3012010BD2046FFF7E8FF0028F9D076
:10781C00A368002BF5D122681370F2E737B50D463B
:10782C00114601920446FFF7E5FF019A28B920465C
:10783C00FFF7C9FF204603B030BDA260294620687F
:10784C0000F056FC2268A3680021D154F2E7002313
:10785C0013B5C0E9003304468360037341B1084695
:10786C00019100F0C2FC019902462046FFF7D6FFB9
:10787C00204602B010BD38B5054600680C4668B10C
:10788C006A688B689A4207D3096800F0A6FCA36863
:10789C00AB600023A36038BDFEF774FA23682B603D
:1078AC0063686B60A368AB600023C4E90033F1E745
:1078BC0010B50023C0E90033044683600373FFF75F
:1078CC00DAFF204610BD884210B5044605D00B687F
:1078DC002BB18A681946FFF7A1FF204610BDFFF7B0
:1078EC0072FFFAE710B500230446C0E90033836049
:1078FC000373FFF7E8FF204610BD00000EB470B50F
:10790C0087B00BAD044655F8042B01922B4605218C
:10791C0004A80395FEF756FA0B4906462046FFF7D6
:10792C0096FF31462046FFF765FF206830B1019A7B
:10793C0003952B46711CFEF745FAA060204607B054
:10794C00BDE8704003B07047818C0D00054B0222DE
:10795C001A60054B054A9A6000201860988098714F
:10796C00FEF744B9D0E50320C4E503200000FFFF77
:10797C0008B50020FEF78EF928B1FEF783F980F0E8
:10798C000100C0B208BD0120FCE71FB502460B4642
:10799C0068460021CDE90023CDE90211FDF7A6FFD1
:1079AC00024610B90146FEF749F905B05DF804FB33
:1079BC0030B504461848D0E90010521840EB0303C8
:1079CC001648D0E90010521893B040EB0303CDE9F0
:1079DC00002324220DEB0200002100F0B1FB002556
:1079EC0009A96846FEF706FA1622294603A802954D
:1079FC0000F0A6FB02A909A800F04EFB02A800F0BB
:107A0C00F4FB12AB184402A900F8415C2046FFF7C6
:107A1C001EFF204613B030BDE8E50320E0E503204F
:107A2C002DE9F04FA5B00746884614A811463F2211
:107A3C001D4600F007FC002314A88DF88F3000F0D1
:107A4C00D4FB04465DBB2A4903A800F0C6FB14AE68
:107A5C00002504F1FF3BAB4536D9B14605F1010ACF
:107A6C0019F8013B252B17D173787A2B14D103A865
:107A7C0000F0BBFB14AB044628181844ABEB050212
:107A8C00B11C00F035FB224603A9304600F030FB58
:107A9C0014A800F0AAFB04464E465546D9E73C21F3
:107AAC0095FBF1F3002BB8BF5B42B3FBF1F201FB8A
:107ABC00123300930F4A4FF46163102103A895FB16
:107ACC00F3F3FEF777F9C2E700212E2208A80791FD
:107ADC0000F036FB434614AA322107A8FEF782F9C0
:107AEC0007A93846FFF7B3FE384625B0BDE8F08F3E
:107AFC00508D0D00528D0D00F0B58DB0CDE90023E9
:107B0C00129D044615B9194B1D682DB1184B28460A
:107B1C00196800F058FB38B9DDE900232046FFF75F
:107B2C0047FF20460DB0F0BD124E0099124FD6E91A
:107B3C0000325B18019941EB0202D7E900011B18D6
:107B4C0041EB0202CDE900320021242203A800F00F
:107B5C00F7FA03A96846FEF74DF932683B6803A9AA
:107B6C00134420462A46FFF75BFFDAE7D8E50320EB
:107B7C0028E40320E8E50320E0E5032010B500200D
:107B8C00FDF7ACFE0446A0B9FEF728F8012810D189
:107B9C002046FEF74BF860B9FFF7EAFE10B9FEF786
:107BAC0069F8F9E7FFF7E4FEBDE810400020FDF7A7
:107BBC0095BE204610BD0000024B1A68024B1A609D
:107BCC00704700BF28E40320D8E5032070474174B8
:107BDC007047704708B5007CFDF790FF20EAE07015
:107BEC0008BD08B5007CFDF761FF20EAE07008BD18
:107BFC0008B5007CFDF76AFF40EAE07008BD08B5E7
:107C0C00007CFDF75BFF40EAE07008BD007CFDF7EF
:107C1C0065BF37B5457C04462DB1207C03B0BDE86B
:107C2C003040FDF73BBF007C0191FDF767FF00285A
:107C3C000199F2DC284603B030BD10B5142104467E
:107C4C0000F024FA204610BD10B54FF0000C04468D
:107C5C00084611464FF47A72C4E901C2044A226004
:107C6C000122207462741A46FDF708FF204610BDED
:107C7C00848D0D00007C0023FDF748BF0022FFF728
:107C8C00F9BF007CFDF702BF13B50D4C2178BFF393
:107C9C005B8F11F0010110D120460191FCF704FA21
:107CAC00019950B1074B084A0848FFF7CDFF204611
:107CBC00FCF7FFF9064800F015FA044802B010BDB5
:107CCC00F0E5032078E60320F4E50320FCE603202E
:107CDC00DF7B0D00417470477047704708B5002179
:107CEC00007CFDF743FF40EAE07008BD08B50121B8
:107CFC00007CFDF73BFF40EAE07008BD08B5007C56
:107D0C00FDF72CFF20EAE07008BD08B5007CFDF7FC
:107D1C001DFF20EAE07008BD13B50446007C0191FC
:107D2C00FDF71CFF0028019901DC607C20B1207C50
:107D3C00FDF724FF20EAE07002B010BD007CFDF7D7
:107D4C0025BF10B51421044600F0A0F9204610BD43
:107D5C0010B54FF47A73044608460021C4E90113A8
:107D6C00044B23600123207463741146FDF7D6FE87
:107D7C00204610BDB48D0D00007C0022FDF7D6BE50
:107D8C00007CFDF7DBBE10B514220446002100F088
:107D9C00D7F9204610BD000010B50F4C88B003A8D1
:107DAC00FFF7F1FF2178BFF35B8F11F001010FD1C9
:107DBC0020460191FCF778F9019948B103AA0748CC
:107DCC00FFF7C6FF2046FCF774F9054800F08AF966
:107DDC00024808B010BD00BF10E7032014E70320D1
:107DEC00E57C0D00014B1860704700BF2CE40320AC
:107DFC0008B50B4B43B1FFF7CFFF03681B699847DE
:107E0C00002801DDAFF30080064B43B1FFF73CFFC8
:107E1C0003681B699847002801DDAFF3008008BD9B
:107E2C00000000000000000008B5FFF7E1FFFDF7BF
:107E3C004DFD014B186008BD3CE703200548064A80
:107E4C00064908B5121A00F053F9054B054A1A6099
:107E5C0008BD00BF00F4032004F40320608F0D0064
:107E6C0000F403201E1C279A07B5002300931A4622
:107E7C006FF07701FDF7F4FE03B05DF804FB000032
:107E8C0007B543880A2B08D0502B0BD1094B1B6824
:107E9C004BB103B05DF804EB1847FFF7E5FF03B0F7
:107EAC005DF804FB002300931A466FF07701FDF791
:107EBC00D7FEF4E72CE7032010B512480021FDF79C
:107ECC0089FF114B1A68114B9A42114B0CBF0122BE
:107EDC0000221A7001D0FFF7B1FFFDF7E7FC044652
:107EEC0000F036F90B4B13B12046AFF300800021A4
:107EFC000848FDF7D7FEBDE8104007480021FDF704
:107F0C00A5BE00BFF17D0D0000F403201E1C279AB6
:107F1C0028E70320000000008D7E0D00232813B5F8
:107F2C0002D9002002B010BDA0F10B03022B1AD80D
:107F3C00174C2178BFF35B8F11F001010BD1204658
:107F4C000191FCF7B1F8019928B11248FFF72AFC0E
:107F5C002046FCF7AEF80F4B1878FDF787FD00288C
:107F6C00DFD10120DEE7012809D800F06BF80021F1
:107F7C00007CFDF733FD80F00100C0B2D2E7093878
:107F8C000128EED8FFF780FE007CFDF7AFFDF2E78D
:107F9C0030E7032034E70320232838B504460D4688
:107FAC000AD8FF2908D0FFF7B9FF28B12946204687
:107FBC00BDE83840FDF7A2BC38BD38B504460D46C7
:107FCC00FDF7A4FCFF2810D0062804D84D2323FA73
:107FDC0000F0C30709D42046FFF7A0FF28B12946BB
:107FEC002046BDE83840FDF799BC38BD10B50446B5
:107FFC00FDF78CFC031FDBB2012B08D92046FFF7E1
:10800C008DFF20B12046BDE81040FDF78FBC00204D
:10801C0010BD704738B50023202543801423044637
:10802C000380856005610649284600F033F8044951
:10803C006060284600F02EF8E060204638BD00BF96
:10804C00DC8D0D0030B50E4D2978BFF35B8F11F030
:10805C00010487B011D12846FCF726F868B101A8B5
:10806C00FFF7D8FF01AA21460648FDF7B7FF2846BF
:10807C00FCF71FF8044800F035F8024807B030BD93
:10808C0040E7032044E703201F800D00FBF7FFBFF0
:10809C00FBF7F9BFFBF7F9BF10B50C464169036953
:1080AC00826986B001F26C71049101680391416898
:1080BC00029181680191C1680091074903EB430368
:1080CC000B44064902EB42020A4420460449FDF7E0
:1080DC0069FE204606B010BD128E0D00FD8D0D0000
:1080EC00DD8D0D00002301461A46184600F056B9E6
:1080FC000A44914200F1FF3300D1704710B511F8DA
:10810C00014B03F8014F9142F9D110BD884210B5D3
:10811C0001EB020402D98442234607D8431EA14234
:10812C0008D011F8012B03F8012FF8E7024401469F
:10813C008A4200D110BD13F8014D02F8014DF7E74A
:10814C0002440346934200D1704703F8011BF9E740
:10815C0038B50D4B1D68AB6B04467BB91820FDF789
:10816C0009FE0A4A0A4BA863C0E90023094B836045
:10817C000B23838101220023C0E90423AB6B002273
:10818C001C615A6138BD00BF2CE403200E33CDAB0B
:10819C0034126DE6ECDE0500C9B2034610F8012B73
:1081AC001AB18A42F9D118467047002918BF00232A
:1081BC00F9E710B50446FFF7EFFF18B9204600F0B9
:1081CC0014F8204410BD10F8012B11F8013B012AC2
:1081DC0028BF9A42F7D0D01A7047034611F8012BEA
:1081EC0003F8012B002AF9D17047034613F8012B31
:1081FC00002AFBD1181A0138704730B5044625788F
:10820C0023460134002DFAD1013A04D311F8014B65
:10821C0003F8014B04B930BD002AF5D11A70F3E70D
:10822C0010B56AB10139841810F8013B11F8012F0F
:10823C00934203D1A04201D0002BF5D1981A10BD66
:10824C001046FCE710B50139034632B111F8014F65
:10825C0003F8014B013A002CF7D11A440021934248
:10826C0000D110BD03F8011BF9E738B503460C46E5
:10827C0069B9BDE83840FFF78FBF431C054621465E
:10828C001846FFF789FF0028F7D1284638BD00258E
:10829C00F5E700002DE9F0473A4E86468C466046DD
:1082AC001CF8014BA55D15F00805F8D12D2C33D128
:1082BC009CF800404FF0010800F1020C002B5CD040
:1082CC00102B0CD1302C0AD19CF8000000F0DF00F0
:1082DC0058284DD19CF8014010230CF1020C08F1E8
:1082EC000047013F0026B7FBF3F9304603FB197A30
:1082FC00A4F13005092D18D82C46A34224DD751C99
:10830C0007D081451DD301D1A2451ADB00FB0340E8
:10831C0001261CF8014BEBE72B2C08BF9CF8004006
:10832C00A84608BF00F1020CC8E7A4F14105192DBD
:10833C0001D8373CE1E7A4F16105192D04D8573C6D
:10834C00DBE74FF0FF36E4E7731C06D12223CEF8AF
:10835C000030384642B9BDE8F087B8F1000F00D0C4
:10836C004042002AF7D00EB10CF1FF311160F2E758
:10837C003024002BB3D10823B1E7302CA4D00A232E
:10838C00ADE700BF378E0D0013460A460146024882
:10839C000068FFF77FBF00BF2CE403202DE9F843F2
:1083AC00DFF8B8800646D8F800001F460D46914607
:1083BC0000F056F8254B1C6834B9254C1C60254B35
:1083CC0013B11B68C4F8883063681F2B07DDD8F81D
:1083DC00000000F047F84FF0FF30BDE8F8834EB3D3
:1083EC00D4F8880088B91C4B23B9D8F8000000F0E9
:1083FC0038F8F0E74FF48470FDF7BCFC0028F4D09B
:10840C000023C0E94033C4F88800636840F8239027
:10841C0001229A4000EB8301D0F800311343022E65
:10842C00C0F80031C1F8807002BFD0F804311A4393
:10843C00C0F804216368D8F800005A1C023362604B
:10844C0044F8235000F00EF80020C6E7E4E70320C0
:10845C0058E7032000000000815D0D0090E403202C
:10846C0070477047704700001D400D0059400D00CB
:10847C0081400D0085400D00000000006932632032
:10848C0064657669636528732920666F756E642050
:10849C0061743A2000253032582000556E6B6E6F97
:1084AC00776E206572726F722061742061646472E1
:1084BC006573732025303258004E6F2049324320AB
:1084CC006465766963657320666F756E64004469D4
:1084DC007374616E6365206D65617375726564207C
:1084EC003D2025690025642C25642C2564006E6FC5
:1084FC002073616D706C65004465766963657320EB
:10850C006F6E206C696E65207769746820706F7768
:10851C00657200506F776572696E6720646F776E55
:10852C00207468652073656E736F7220626F617260
:10853C00640044657669636573206F6E2D6C696E9B
:10854C006520776974686F757420706F7765720039
:10855C00414231383035206465746563746564005C
:10856C004272696E67696E672073656E736F7273A2
:10857C00206261636B206F6E2D6C696E65004465C3
:10858C007669636573206F6E2D6C696E65207769F3
:10859C00746820706F77657220726573746F726582
:1085AC0064004C495333444820496E697469616CCA
:1085BC00697A6564207375636365737366756C6C37
:1085CC0079004C4953334448206661696C656420DA
:1085DC00696E697469616C697A6174696F6E005453
:1085EC004F462053656E736F7220496E69746961D2
:1085FC006C697A6564207375636365737366756CF7
:10860C006C7900544F462053656E736F722066610F
:10861C00696C656420696E697469616C697A6174EE
:10862C00696F6E00506F776572206F6E2074657382
:10863C007420636F6D706C657465202D206D6561A1
:10864C00737572696E6720726573756D656400541D
:10865C0075726E696E67206F6E20706F73697469C6
:10866C006F6E20696E7465727275707400506F73E2
:10867C006974696F6E20496E7465727275707420BE
:10868C0041637469766174656420537563636573C3
:10869C007366756C6C7900506F776572206F6E2005
:1086AC0074657374206661696C6564202D20737425
:1086BC006F7070696E67004F6E2053696465202D72
:1086CC0020506F736974696F6E203D2025640055CE
:1086DC00707369646520446F776E202D20506F7322
:1086EC006974696F6E203D20256400526967687457
:1086FC0073696465205570202D20506F73697469FF
:10870C006F6E203D202564004E6F742044656669B1
:10871C006E6564202D20506F736974696F6E203DF7
:10872C00202564004652414D204D6F64756C6520C8
:10873C00696E697469616C697A696E6720766572B5
:10874C0073696F6E202569004652414D2074657324
:10875C0074206661696C65642C206578706563743F
:10876C00656420256920616E6420666F756E6420D7
:10877C002569004652414D204D6F64756C65206C27
:10878C006F61646564207375636365737366756C80
:10879C006C7900414231383035204661696C656432
:1087AC0020746F20496E697469616C697A6500493F
:1087BC006E697469616C697A6174696F6E20436F5C
:1087CC006D706C65746520616C6C20646576696392
:1087DC006573206F6E2D6C696E65005374617274D5
:1087EC00696E6720612072756E6E696E67207361A9
:1087FC006D706C652072756E002A2A2A2A2A2A2A24
:10880C002A2A2A2A2A2A2A2A2A2A2A2A2A2A2A2ABC
:10881C002A2A2A2A2A2A004572726F727320696EDC
:10882C0020496E697469616C697A6174696F6E2034
:10883C002D2053746F7070696E670000000000008B
:10884C00000000000000000000000000A1400D002E
:10885C00C5400D00000000000000000005410D00A7
:10886C0039410D000D720D00C7400D0000000000D5
:10887C0000000000DD400D00F1400D000D530D0017
:10888C00A3530D0025540D004F74686572206F7250
:10889C0069656E746174696F6E0000000000000001
:1088AC0000000000000000002A0000006661696CF6
:1088BC00656420746F207265616420726567416421
:1088CC0064723D2530327820636F756E743D25756A
:1088DC00006661696C656420746F20726561642048
:1088EC00726567416464723D25303278207374611F
:1088FC00743D256400464F555420646964206E6FA6
:10890C007420676F2048494748006E6F7420646577
:10891C00746563746564006661696C656420746F6A
:10892C0020777269746520726567416464723D25B5
:10893C0030327820737461743D256400736574570C
:10894C004454202564007761746368646F67206306
:10895C006C65617265642062526573756C743D253B
:10896C0064007761746368646F6720736574206654
:10897C006F7572536563733D256420625265737520
:10898C006C743D2564005741544348444F470044A0
:10899C004545505F504F5745525F444F574E00432B
:1089AC004F554E54444F574E5F54494D455200411C
:1089BC004C41524D006661696C75726520696E2080
:1089CC0075706461746557616B65526561736F6E28
:1089DC002025640077616B6520726561736F6E2072
:1089EC003D20257300253034642D253032642D252F
:1089FC0030326420253032643A253032643A2530E6
:108A0C003264006765745274634173546D2025732E
:108A1C00007365742073797374656D20636C6F6378
:108A2C006B2066726F6D2052544320257300666173
:108A3C00696C656420746F2064657465637420418F
:108A4C004231383035006170702E6162313830350A
:108A5C0000000000000000000000000081480D0034
:108A6C0083480D00E34C0D00694D0D00646576697B
:108A7C006365206E6F7420666F756E640000000075
:108A8C000000000000000000AD4F0D00AF4F0D00C6
:108A9C00BD500D0005500D00BD4F0D00777269746F
:108AAC006544617461206661696C656420647572EB
:108ABC00696E67206572617365206672616D4164D1
:108ACC0064723D25750000000000000000000000ED
:108ADC005D520D005F520D000D530D00A3530D00A0
:108AEC0025540D0000000000000000004F550D0043
:108AFC002F550D0019550D00D5540D000B550D00BB
:108B0C00F1540D00D7540D000001010102000208C0
:108B1C00000810010100000000FF000F0000000021
:108B2C0000200B0000020A2100000500000000C814
:108B3C00000038FF010008000001DB0F01F10D01FE
:108B4C0068008008B8000000000F890000000000D9
:108B5C000000010F0D0E0E000002C7FF9B0000006D
:108B6C00010000000000000000000000DB5E0D00B2
:108B7C00D15E0D00C75E0D007D5E0D00BB5E0D006D
:108B8C00AF5E0D0065750D006D750D00A35E0D00DB
:108B9C009B5E0D00915E0D00875E0D009D750D00B6
:108BAC000000000000000000735F0D00695F0D0005
:108BBC005F5F0D00555F0D00495F0D003D5F0D00BF
:108BCC0065750D006D750D00315F0D00295F0D0091
:108BDC001F5F0D00155F0D009D750D00000000005E
:108BEC0000000000915F0D00DB5F0D00B35F0D0016
:108BFC00935F0D00BB5F0D00C35F0D00CB5F0D00DD
:108C0C00D35F0D00000000000000000019610D0092
:108C1C0009610D000B610D0075253034780062611F
:108C2C0075640053657269616C0053657269616C9F
:108C3C0031004A534F4E53747265616D4C6F6748E7
:108C4C00616E646C65720061707000253031307536
:108C5C0020005D20002C200028293A2000205B00F9
:108C6C00636F6465203D200064657461696C7320DA
:108C7C003D20000D0A006D00630066006C6E0066FE
:108C8C006E00636F64650064657461696C0000005C
:108C9C000000000000000000D5650D00FB650D0014
:108CAC00B9650D0019620D00000000000000000005
:108CBC00296A0D00416A0D000D720D00C7400D00B0
:108CCC000000000000000000556A0D00696A0D00EC
:108CDC00B1730D00C1650D00000000000000000024
:108CEC00D3650D0009660D0049710D00C3650D00BB
:108CFC000000000000000000D1650D0017660D009B
:108D0C0071690D0035660D000000000000000000C8
:108D1C0025750D002F750D0039750D0043750D006F
:108D2C004D750D0059750D0065750D006D750D00B7
:108D3C0075750D0081750D0089750D0093750D000D
:108D4C009D750D005A00252B3033643A2530327551
:108D5C000025592D256D2D25645425483A254D3A6D
:108D6C002553257A0061736374696D6500000000FA
:108D7C000000000000000000D97B0D00477C0D00B6
:108D8C001F7C0D0085760D00EF7B0D000B7C0D001C
:108D9C00FD7B0D00197C0D00DB7B0D00E17B0D00D4
:108DAC000000000000000000E77C0D004F7D0D006E
:108DBC00257D0D0085760D00177D0D00E97C0D00DD
:108DCC00F97C0D00497D0D00097D0D00E17C0D0045
:108DDC0000252E337320252E337325336420252E46
:108DEC0032643A252E32643A252E32642025640AE8
:108DFC000053756E4D6F6E54756557656454687588
:108E0C004672695361744A616E4665624D61724186
:108E1C0070724D61794A756E4A756C417567536510
:108E2C00704F63744E6F76446563002020202020C1
:108E3C0020202020282828282820202020202020FE
:108E4C0020202020202020202020208810101010EE
:108E5C001010101010101010101010040404040442
:108E6C00040404040410101010101010414141416E
:108E7C004141010101010101010101010101010156
:108E8C000101010101011010101010104242424268
:108E9C004242020202020202020202020202020226
:108EAC00020202020202101010102000000000004A
:108EBC0000000000000000000000000000000000A6
:108ECC000000000000000000000000000000000096
:108EDC000000000000000000000000000000000086
:108EEC000000000000000000000000000000000076
:108EFC000000000000000000000000000000000066
:108F0C000000000000000000000000000000000055
:108F1C000000000000000000000000000000000045
:108F2C0000000000000000000000000071470D0070
:108F3C009D4F0D006D5E0D00E55E0D007D5F0D001B
:108F4C00FD710D0071760D00A5770D0059790D009E
:048F5C00C57B0D00C4
:048F6000000000000D
:108F640001000000D0070000EC8C0D00048D0D0002
:108F7400718D0D0030E403200000000000000000AB
:108F840000000000000000000000000000000000DD
:108F940000000000000000000000000000000000CD
:108FA40000000000000000000000000000000000BD
:108FB40000000000000000000000000000000000AD
:108FC400000000000000000000000000000000009D
:0C8FD4000000000000000000E9E703209E
:108FE000FFFFFFFF00000102030405060708090A4E
:108FF0000B0C0D0E0F101112131415161718191A49
:089000001B1C1D1E1F2028008F
:049008007856341250
:04000003D000401CCD
:00000001FF
